HFV10   04850445000898
D3448028800040365400913000140    0000000000001SOCIO PROPRIETARIO                                34           34 - CRISTIANO                                    3396                IVAN CARLOS                                       
D3448028800040346676434000107    0000000000001SOCIO PROPRIETARIO                                31           31 - VIOTTO                                       3417                SMOKOVITZ                                         
D3448028800040347443635000127    0000000000001SOCIO PROPRIETARIO                                30           30 - SYRINO                                       3002                RODEMAR                                           
D3448028800040303423090000111    0000000000001SOCIO PROPRIETARIO                                34           34 - CRISTIANO                                    3360                ARIANE CONSONI                                    
D3448028800040351468332000136    0000000000001SOCIO PROPRIETARIO                                34           34 - CRISTIANO                                    3617                WILLIAM ALVES                                     
D3448028800040319521555000107    0000000000001SOCIO PROPRIETARIO                                34           34 - CRISTIANO                                    3342                GENESI                                            
D3448028800040310558061000122    0000000000001SOCIO PROPRIETARIO                                32           32 - NICOLAU                                      3422                PAMELA COSTA                                      
D3448028800040330322108000161    0000000000001SOCIO PROPRIETARIO                                34           34 - CRISTIANO                                    3360                ARIANE CONSONI                                    
D3448028800040309325629000186    0000000000001SOCIO PROPRIETARIO                                30           30 - SYRINO                                       3005                YAGO.F                                            
D3448028800040301147329000142    0000000000001SOCIO PROPRIETARIO                                32           32 - NICOLAU                                      3621                VERÔNICA VENT.                                    
D3448028800040349605885000141    0000000000001SOCIO PROPRIETARIO                                41           41 - MOISÉS                                       3675                FERNANDO SANTOS                                   
D3448028800040321405566000335    0000000000001SOCIO PROPRIETARIO                                32           32 - NICOLAU                                      3682                FLAVIO LIBRALAO                                   
D3448028800040341006885000113    0000000000001SOCIO PROPRIETARIO                                32           32 - NICOLAU                                      3476                FABIANA VIG.                                      
D3448028800040302228117000152    0000000000001SOCIO PROPRIETARIO                                34           34 - CRISTIANO                                    3624                MARIA SUELI                                       
D3448028800040342816740000140    0000000000001SOCIO PROPRIETARIO                                35           35 - THIAGO                                       3438                JAMIR RIBEIRO                                     
D3448028800040304834843001116    0000000000001SOCIO PROPRIETARIO                                31           31 - VIOTTO                                       3650                ALINE LOPES                                       
D3448028800040303677962000178    0000000000001SOCIO PROPRIETARIO                                34           34 - CRISTIANO                                    3352                NEILA SANTOS                                      
D3448028800040351477511000130    0000000000001SOCIO PROPRIETARIO                                35           35 - THIAGO                                       3438                JAMIR RIBEIRO                                     
D3448028800040307581528000140    0000000000001SOCIO PROPRIETARIO                                30           30 - SYRINO                                       3005                YAGO.F                                            
D3448028800040340495317000160    0000000000001SOCIO PROPRIETARIO                                35           35 - THIAGO                                       3432                ALINE CRISTINA                                    
D3448028800040318454563000115    0000000000001SOCIO PROPRIETARIO                                31           31 - VIOTTO                                       3607                VANDER MARCELO                                    
D3448028800040306969512000147    0000000000001SOCIO PROPRIETARIO                                32           32 - NICOLAU                                      3356                KAMILLA                                           
D3448028800040329228205000100    0000000000001SOCIO PROPRIETARIO                                31           31 - VIOTTO                                       4208                KARINA ZURDO                                      
D3448028800040325329226000161    0000000000001SOCIO PROPRIETARIO                                34           34 - CRISTIANO                                    3583                HENRIQUE CAMPOS                                   
D3448028800040351133577000102    0000000000001SOCIO PROPRIETARIO                                33           33 - GAZZIGNATO                                   3402                ANTONIO CORTEZE                                   
D3448028800040309453409000138    0000000000001SOCIO PROPRIETARIO                                31           31 - VIOTTO                                       3683                ERICA COSTA                                       
D3448028800040358307250000159    0000000000001SOCIO PROPRIETARIO                                32           32 - NICOLAU                                      3476                FABIANA VIG.                                      
D3448028800040303196294000167    0000000000001SOCIO PROPRIETARIO                                34           34 - CRISTIANO                                    3398                RAQUEL CRISTINA                                   
D3448028800040348253171000159    0000000000001SOCIO PROPRIETARIO                                34           34 - CRISTIANO                                    3624                MARIA SUELI                                       
D3448028800040337469363000180    0000000000001SOCIO PROPRIETARIO                                34           34 - CRISTIANO                                    3396                IVAN CARLOS                                       
D3448028800040373103830000118    0000000000001SOCIO PROPRIETARIO                                40           40 - BRUNO PERRONE                                3628                MARLON OLIVEIRA                                   
D3448028800040365986226000159    0000000000001SOCIO PROPRIETARIO                                32           32 - NICOLAU                                      3496                MARIA VANDA                                       
D3448028800040335480410000161    0000000000001SOCIO PROPRIETARIO                                33           33 - GAZZIGNATO                                   3660                ANDRE PERROTTA                                    
D3448028800040323275674000102    0000000000001SOCIO PROPRIETARIO                                40           40 - BRUNO PERRONE                                3433                RUTE MARQUES                                      
D3448028800040347389358000111    0000000000001SOCIO PROPRIETARIO                                40           40 - BRUNO PERRONE                                3632                EQUIPE 40                                         
D3448028800040312877125000183    0000000000001SOCIO PROPRIETARIO                                41           41 - MOISÉS                                       3668                REINALDO PINTO                                    
D3448028800040340300267000119    0000000000001SOCIO PROPRIETARIO                                40           40 - BRUNO PERRONE                                3433                RUTE MARQUES                                      
D3448028800040323527983000114    0000000000001SOCIO PROPRIETARIO                                34           34 - CRISTIANO                                    3624                MARIA SUELI                                       
D3448028800040303959751000128    0000000000001SOCIO PROPRIETARIO                                34           34 - CRISTIANO                                    3342                GENESI                                            
D3448028800040343741039000172    0000000000001SOCIO PROPRIETARIO                                35           35 - THIAGO                                       3426                AMANDA LIMA                                       
D3448028800040329695397000165    0000000000001SOCIO PROPRIETARIO                                41           41 - MOISÉS                                       3675                FERNANDO SANTOS                                   
D3448028800040304705088000106    0000000000001SOCIO PROPRIETARIO                                34           34 - CRISTIANO                                    3661                VINICIUS RAMPIM                                   
D3448028800040361812186000178    0000000000001SOCIO PROPRIETARIO                                34           34 - CRISTIANO                                    3352                NEILA SANTOS                                      
D3448028800040350429496000191    0000000000001SOCIO PROPRIETARIO                                34           34 - CRISTIANO                                    3360                ARIANE CONSONI                                    
D3448028800040307016570000119    0000000000001SOCIO PROPRIETARIO                                34           34 - CRISTIANO                                    3584                MARIUSA                                           
D3448028800040339622429000318    0000000000001SOCIO PROPRIETARIO                                35           35 - THIAGO                                       3426                AMANDA LIMA                                       
D3448028800040339622429000156    0000000000001SOCIO PROPRIETARIO                                35           35 - THIAGO                                       3426                AMANDA LIMA                                       
D3448028800040351477511000300    0000000000001SOCIO PROPRIETARIO                                35           35 - THIAGO                                       3438                JAMIR RIBEIRO                                     
D3448028800040312003055000649    0000000000001SOCIO PROPRIETARIO                                35           35 - THIAGO                                       3462                SARA MORAES                                       
D3448028800040359434862000175    0000000000001SOCIO PROPRIETARIO                                34           34 - CRISTIANO                                    3617                WILLIAM ALVES                                     
D3448028800040344341809000152    0000000000001SOCIO PROPRIETARIO                                33           33 - GAZZIGNATO                                   3451                MARLENE SILVA                                     
D3448028800040308772263000120    0000000000001SOCIO PROPRIETARIO                                32           32 - NICOLAU                                      3482                LIGIA SOUZA                                       
D3448028800040342154789000185    0000000000001SOCIO PROPRIETARIO                                34           34 - CRISTIANO                                    3624                MARIA SUELI                                       
D3448028800040303164666000173    0000000000001SOCIO PROPRIETARIO                                32           32 - NICOLAU                                      3681                ROBSON FILHO                                      
D3448028800040324285866000154    0000000000001SOCIO PROPRIETARIO                                33           33 - GAZZIGNATO                                   3635                EQUIPE 33                                         
D3448028800040300154801000101    0000000000001SOCIO PROPRIETARIO                                31           31 - VIOTTO                                       3633                EQUIPE 31                                         
D3448028800040348204614000111    0000000000001SOCIO PROPRIETARIO                                31           31 - VIOTTO                                       3666                BRUNO SANTOS                                      
D3448028800040326012171000124    0000000000001SOCIO PROPRIETARIO                                32           32 - NICOLAU                                      3623                FRANCINE                                          
D3448028800040359209437000182    0000000000001SOCIO PROPRIETARIO                                41           41 - MOISÉS                                       3627                CLIMACA BONNES                                    
D3448028800040337702766000128    0000000000001SOCIO PROPRIETARIO                                40           40 - BRUNO PERRONE                                3351                RAILDE MARINHO                                    
D3448028800040350050828000122    0000000000001SOCIO PROPRIETARIO                                40           40 - BRUNO PERRONE                                3351                RAILDE MARINHO                                    
D3448028800040344893832000150    0000000000001SOCIO PROPRIETARIO                                40           40 - BRUNO PERRONE                                3351                RAILDE MARINHO                                    
D3448028800040313074988000185    0000000000001SOCIO PROPRIETARIO                                34           34 - CRISTIANO                                    3396                IVAN CARLOS                                       
D3448028800040312003055000134    0000000000001SOCIO PROPRIETARIO                                35           35 - THIAGO                                       3462                SARA MORAES                                       
D3448028800040308685060000105    0000000000001SOCIO PROPRIETARIO                                31           31 - VIOTTO                                       3648                MATHEUS MOURA                                     
D3448028800040303502426000131    0000000000001SOCIO PROPRIETARIO                                32           32 - NICOLAU                                      3356                KAMILLA                                           
D3448028800040350377070000131    0000000000001SOCIO PROPRIETARIO                                40           40 - BRUNO PERRONE                                3351                RAILDE MARINHO                                    
D3448028800040327399056000117    0000000000001SOCIO PROPRIETARIO                                34           34 - CRISTIANO                                    3617                WILLIAM ALVES                                     
D3448028800040355173934000117    0000000000001SOCIO PROPRIETARIO                                41           41 - MOISÉS                                       3627                CLIMACA BONNES                                    
D3448028800040314760059000192    0000000000001SOCIO PROPRIETARIO                                34           34 - CRISTIANO                                    3342                GENESI                                            
D3448028800040356799828000106    0000000000001SOCIO PROPRIETARIO                                35           35 - THIAGO                                       3432                ALINE CRISTINA                                    
D3448028800040331289464000193    0000000000001SOCIO PROPRIETARIO                                40           40 - BRUNO PERRONE                                3364                FABIO OZEAS                                       
D3448028800040303146814000127    0000000000001SOCIO PROPRIETARIO                                35           35 - THIAGO                                       3432                ALINE CRISTINA                                    
D3448028800040351082740000821    0000000000001SOCIO PROPRIETARIO                                33           33 - GAZZIGNATO                                   3451                MARLENE SILVA                                     
D3448028800040323757582000150    0000000000001SOCIO PROPRIETARIO                                40           40 - BRUNO PERRONE                                3351                RAILDE MARINHO                                    
D3448028800040351082740000406    0000000000001SOCIO PROPRIETARIO                                33           33 - GAZZIGNATO                                   3451                MARLENE SILVA                                     
D3448028800040308363351000179    0000000000001SOCIO PROPRIETARIO                                34           34 - CRISTIANO                                    3584                MARIUSA                                           
D3448028800040311978524000178    0000000000001SOCIO PROPRIETARIO                                31           31 - VIOTTO                                       3666                BRUNO SANTOS                                      
D3448028800040338212430000140    0000000000001SOCIO PROPRIETARIO                                35           35 - THIAGO                                       3669                CARLOS PEREZ                                      
D3448028800040309580548001102    0000000000001SOCIO PROPRIETARIO                                32           32 - NICOLAU                                      3454                JOAO SOARES                                       
D3448028800040309580548000394    0000000000001SOCIO PROPRIETARIO                                32           32 - NICOLAU                                      3454                JOAO SOARES                                       
D3448028800040309580548001870    0000000000001SOCIO PROPRIETARIO                                32           32 - NICOLAU                                      3454                JOAO SOARES                                       
D3448028800040347550314000393    0000000000001SOCIO PROPRIETARIO                                35           35 - THIAGO                                       3448                NILSON MELE                                       
D3448028800040307008628000182    0000000000001SOCIO PROPRIETARIO                                34           34 - CRISTIANO                                    3624                MARIA SUELI                                       
D3448028800040355501948000112    0000000000001SOCIO PROPRIETARIO                                32           32 - NICOLAU                                      3496                MARIA VANDA                                       
D3448028800040326290365000191    0000000000001SOCIO PROPRIETARIO                                41           41 - MOISÉS                                       3464                MICHAEL ALVES                                     
D3448028800040307971032000183    0000000000001SOCIO PROPRIETARIO                                41           41 - MOISÉS                                       3665                ANA VINE                                          
D3448028800040308885294000198    0000000000001SOCIO PROPRIETARIO                                40           40 - BRUNO PERRONE                                3351                RAILDE MARINHO                                    
D3448028800040372216898000140    0000000000001SOCIO PROPRIETARIO                                40           40 - BRUNO PERRONE                                3433                RUTE MARQUES                                      
D3448028800040301031579000970    0000000000001SOCIO PROPRIETARIO                                31           31 - VIOTTO                                       3607                VANDER MARCELO                                    
D3448028800040350918937000119    0000000000001SOCIO PROPRIETARIO                                41           41 - MOISÉS                                       3665                ANA VINE                                          
D3448028800040310792424000190    0000000000001SOCIO PROPRIETARIO                                32           32 - NICOLAU                                      3496                MARIA VANDA                                       
D3448028800040318715775000109    0000000000001SOCIO PROPRIETARIO                                31           31 - VIOTTO                                       3607                VANDER MARCELO                                    
D3448028800040310281026000109    0000000000001SOCIO PROPRIETARIO                                32           32 - NICOLAU                                      3454                JOAO SOARES                                       
D3448028800040346461201000197    0000000000001SOCIO PROPRIETARIO                                33           33 - GAZZIGNATO                                   3451                MARLENE SILVA                                     
D3448028800040307284351000110    0000000000001SOCIO PROPRIETARIO                                34           34 - CRISTIANO                                    3398                RAQUEL CRISTINA                                   
D3448028800040337559154000128    0000000000001SOCIO PROPRIETARIO                                35           35 - THIAGO                                       3432                ALINE CRISTINA                                    
D3448028800040348938882000167    0000000000001SOCIO PROPRIETARIO                                83           83- E-COMMERCE 801                                83                  E-COMMERCE                                        
D3448028800040305209261000482    0000000000001SOCIO PROPRIETARIO                                34           34 - CRISTIANO                                    3663                RICHARD FIORIN                                    
D3448028800040348894158000189    0000000000001SOCIO PROPRIETARIO                                40           40 - BRUNO PERRONE                                3598                MARIA SANTOS                                      
D3448028800040300308103000113    0000000000001SOCIO PROPRIETARIO                                40           40 - BRUNO PERRONE                                3364                FABIO OZEAS                                       
D3448028800040352687448000129    0000000000001SOCIO PROPRIETARIO                                41           41 - MOISÉS                                       3675                FERNANDO SANTOS                                   
D3448028800040302607738000147    0000000000001SOCIO PROPRIETARIO                                40           40 - BRUNO PERRONE                                3332                MAGIEIRA                                          
D3448028800040323846400000207    0000000000001SOCIO PROPRIETARIO                                34           34 - CRISTIANO                                    3583                HENRIQUE CAMPOS                                   
D3448028800040320708652000192    0000000000001SOCIO PROPRIETARIO                                32           32 - NICOLAU                                      3657                MARYANNE                                          
D3448028800040344174246000155    0000000000001SOCIO PROPRIETARIO                                40           40 - BRUNO PERRONE                                3351                RAILDE MARINHO                                    
D3448028800040312312801000171    0000000000001SOCIO PROPRIETARIO                                35           35 - THIAGO                                       3600                ELAINE COSTA                                      
D3448028800040337469363000261    0000000000001SOCIO PROPRIETARIO                                34           34 - CRISTIANO                                    3396                IVAN CARLOS                                       
D3448028800040359258681000135    0000000000001SOCIO PROPRIETARIO                                34           34 - CRISTIANO                                    3583                HENRIQUE CAMPOS                                   
D3448028800040306778163000186    0000000000001SOCIO PROPRIETARIO                                31           31 - VIOTTO                                       3658                MATHEUS SILVA                                     
D3448028800040318625421000173    0000000000001SOCIO PROPRIETARIO                                31           31 - VIOTTO                                       3654                MICHELE                                           
D3448028800040309580548001013    0000000000001SOCIO PROPRIETARIO                                32           32 - NICOLAU                                      3454                JOAO SOARES                                       
D3448028800040307206937000167    0000000000001SOCIO PROPRIETARIO                                32           32 - NICOLAU                                      3454                JOAO SOARES                                       
D3448028800040343374006000131    0000000000001SOCIO PROPRIETARIO                                35           35 - THIAGO                                       3432                ALINE CRISTINA                                    
D3448028800040310956351000205    0000000000001SOCIO PROPRIETARIO                                31           31 - VIOTTO                                       4208                KARINA ZURDO                                      
D3448028800040355734804000106    0000000000001SOCIO PROPRIETARIO                                40           40 - BRUNO PERRONE                                3662                JULIANA GIMENEZ                                   
D3448028800040359310979000147    0000000000001SOCIO PROPRIETARIO                                35           35 - THIAGO                                       3426                AMANDA LIMA                                       
D3448028800040345492436000183    0000000000001SOCIO PROPRIETARIO                                34           34 - CRISTIANO                                    3342                GENESI                                            
D3448028800040328059864000106    0000000000001SOCIO PROPRIETARIO                                31           31 - VIOTTO                                       3648                MATHEUS MOURA                                     
D3448028800040305123132000124    0000000000001SOCIO PROPRIETARIO                                31           31 - VIOTTO                                       3648                MATHEUS MOURA                                     
D3448028800040332248770000225    0000000000001SOCIO PROPRIETARIO                                34           34 - CRISTIANO                                    3396                IVAN CARLOS                                       
D3448028800040315465350000109    0000000000001SOCIO PROPRIETARIO                                31           31 - VIOTTO                                       3670                ALESSANDRO                                        
D3448028800040325955295000180    0000000000001SOCIO PROPRIETARIO                                830          830 - JULIO CESAR                                 8358                GILBERTO                                          
D3448028800040331980530000177    0000000000001SOCIO PROPRIETARIO                                890          890 - HELDER                                      8907                THAMARA                                           
D3448028800040309326285000120    0000000000001SOCIO PROPRIETARIO                                740          740 - THIAGO AUGUSTO                              7306                PAULO.CAFA                                        
D3448028800040314688896000158    0000000000001SOCIO PROPRIETARIO                                890          890 - HELDER                                      8950                IVANI                                             
D3448028800040326366536000119    0000000000001SOCIO PROPRIETARIO                                890          890 - HELDER                                      8910                ROGERIO                                           
D3448028800040302480852000159    0000000000001SOCIO PROPRIETARIO                                850          850 - ORLANDO                                     8520                POLYANA                                           
D3448028800040343585197000180    0000000000001SOCIO PROPRIETARIO                                740          740 - THIAGO AUGUSTO                              4409                GEOVANE                                           
D3448028800040311150801000150    0000000000001SOCIO PROPRIETARIO                                740          740 - THIAGO AUGUSTO                              7449                JOSE.SOARES                                       
D3448028800040320331633000190    0000000000001SOCIO PROPRIETARIO                                740          740 - THIAGO AUGUSTO                              7301                MICHEL                                            
D3448028800040310250747000232    0000000000001SOCIO PROPRIETARIO                                740          740 - THIAGO AUGUSTO                              7322                SARA                                              
D3448028800040304088786000100    0000000000001SOCIO PROPRIETARIO                                890          890 - HELDER                                      2551                JOCIMAR                                           
D3448028800040371441935000151    0000000000001SOCIO PROPRIETARIO                                890          890 - HELDER                                      8912                EDSON.MEIRELES                                    
D3448028800040321253729001200    0000000000001SOCIO PROPRIETARIO                                740          740 - THIAGO AUGUSTO                              4409                GEOVANE                                           
D3448028800040308157003000145    0000000000001SOCIO PROPRIETARIO                                740          740 - THIAGO AUGUSTO                              4452                MARONI                                            
D3448028800040347861359000117    0000000000001SOCIO PROPRIETARIO                                890          890 - HELDER                                      8926                CLEDSON                                           
D3448028800040365274714000133    0000000000001SOCIO PROPRIETARIO                                740          740 - THIAGO AUGUSTO                              7322                SARA                                              
D3448028800040303883354000110    0000000000001SOCIO PROPRIETARIO                                890          890 - HELDER                                      8901                MILTON                                            
D3448028800040303024735000143    0000000000001SOCIO PROPRIETARIO                                890          890 - HELDER                                      8940                DENILSON                                          
D3448028800040312797335000161    0000000000001SOCIO PROPRIETARIO                                740          740 - THIAGO AUGUSTO                              4409                GEOVANE                                           
D3448028800040329494427653       0000000000001SOCIO PROPRIETARIO                                740          740 - THIAGO AUGUSTO                              4409                GEOVANE                                           
D3448028800040366310350000162    0000000000001SOCIO PROPRIETARIO                                740          740 - THIAGO AUGUSTO                              7322                SARA                                              
D3448028800040350157912000140    0000000000001SOCIO PROPRIETARIO                                850          850 - ORLANDO                                     8541                THAIS.SILVEIRA                                    
D3448028800040340289470000131    0000000000001SOCIO PROPRIETARIO                                350          350 - JONATHAN                                    7310                MARIA DAS DORES                                   
D3448028800040308457834000213    0000000000001SOCIO PROPRIETARIO                                890          890 - HELDER                                      8915                BARBARA                                           
D3448028800040304318429000263    0000000000001SOCIO PROPRIETARIO                                890          890 - HELDER                                      2550                WASHINGTON                                        
D3448028800040311200380000124    0000000000001SOCIO PROPRIETARIO                                330          330 - ANDERSON                                    4448                PEDRO.LUIZ                                        
D3448028800040303520884000101    0000000000001SOCIO PROPRIETARIO                                330          330 - ANDERSON                                    4496                JULIO CESAR                                       
D3448028800040386646510000156    0000000000001SOCIO PROPRIETARIO                                740          740 - THIAGO AUGUSTO                              7308                PATRICIA.SILVA                                    
D3448028800040333597082000152    0000000000001SOCIO PROPRIETARIO                                740          740 - THIAGO AUGUSTO                              7322                SARA                                              
D3448028800040313382971000195    0000000000001SOCIO PROPRIETARIO                                790          790 - MARCO AURELIO                               7964                JORGE OLIVEIRA                                    
D3448028800040323153943000150    0000000000001SOCIO PROPRIETARIO                                890          890 - HELDER                                      2551                JOCIMAR                                           
D3448028800040321931142000142    0000000000001SOCIO PROPRIETARIO                                850          850 - ORLANDO                                     8541                THAIS.SILVEIRA                                    
D3448028800040332682572000194    0000000000001SOCIO PROPRIETARIO                                740          740 - THIAGO AUGUSTO                              7300                WANDERSON                                         
D3448028800040355864991000142    0000000000001SOCIO PROPRIETARIO                                890          890 - HELDER                                      2551                JOCIMAR                                           
D3448028800040310395118000110    0000000000001SOCIO PROPRIETARIO                                850          850 - ORLANDO                                     8503                IVAN                                              
D3448028800040365213076000140    0000000000001SOCIO PROPRIETARIO                                330          330 - ANDERSON                                    4442                LAIZ                                              
D3448028800040314066213669       0000000000001SOCIO PROPRIETARIO                                330          330 - ANDERSON                                    4448                PEDRO.LUIZ                                        
D3448028800040312138357000110    0000000000001SOCIO PROPRIETARIO                                830          830 - JULIO CESAR                                 4483                MATHEUS.ALM                                       
D3448028800040304889443000136    0000000000001SOCIO PROPRIETARIO                                850          850 - ORLANDO                                     8528                EUSTAQUIO                                         
D3448028800040301541102000187    0000000000001SOCIO PROPRIETARIO                                890          890 - HELDER                                      8901                MILTON                                            
D3448028800040302768916000111    0000000000001SOCIO PROPRIETARIO                                740          740 - THIAGO AUGUSTO                              4450                MARCELINO.PAZ                                     
D3448028800040333145462000156    0000000000001SOCIO PROPRIETARIO                                740          740 - THIAGO AUGUSTO                              7308                PATRICIA.SILVA                                    
D3448028800040310950173000124    0000000000001SOCIO PROPRIETARIO                                830          830 - JULIO CESAR                                 8357                GERALDO.CORDEIR                                   
D3448028800040321257549000136    0000000000001SOCIO PROPRIETARIO                                890          890 - HELDER                                      8926                CLEDSON                                           
D3448028800040343839659000149    0000000000001SOCIO PROPRIETARIO                                740          740 - THIAGO AUGUSTO                              7305                ARIANO                                            
D3448028800040342467906000160    0000000000001SOCIO PROPRIETARIO                                740          740 - THIAGO AUGUSTO                              4452                MARONI                                            
D3448028800040331619928000182    0000000000001SOCIO PROPRIETARIO                                790          790 - MARCO AURELIO                               7977                RAFAEL.SANTOS                                     
D3448028800040326074047000193    0000000000001SOCIO PROPRIETARIO                                740          740 - THIAGO AUGUSTO                              2567                KARMENIA                                          
D3448028800040317442302000112    0000000000001SOCIO PROPRIETARIO                                740          740 - THIAGO AUGUSTO                              7320                SHEILLA.KFURI                                     
D3448028800040341676784000150    0000000000001SOCIO PROPRIETARIO                                740          740 - THIAGO AUGUSTO                              7322                SARA                                              
D3448028800040364276918000140    0000000000001SOCIO PROPRIETARIO                                740          740 - THIAGO AUGUSTO                              7325                NADIA                                             
D3448028800040310907997000111    0000000000001SOCIO PROPRIETARIO                                890          890 - HELDER                                      8926                CLEDSON                                           
D3448028800040374071807687       0000000000001SOCIO PROPRIETARIO                                890          890 - HELDER                                      8907                THAMARA                                           
D3448028800040359112401000186    0000000000001SOCIO PROPRIETARIO                                850          850 - ORLANDO                                     8503                IVAN                                              
D3448028800040328826742000190    0000000000001SOCIO PROPRIETARIO                                790          790 - MARCO AURELIO                               7939                NERI.CASTRO                                       
D3448028800040321954078000115    0000000000001SOCIO PROPRIETARIO                                850          850 - ORLANDO                                     8519                JOSE.ALVES                                        
D3448028800040300598082689       0000000000001SOCIO PROPRIETARIO                                740          740 - THIAGO AUGUSTO                              4446                HERBERTH                                          
D3448028800040350811932672       0000000000001SOCIO PROPRIETARIO                                740          740 - THIAGO AUGUSTO                              4446                HERBERTH                                          
D3448028800040353001279000194    0000000000001SOCIO PROPRIETARIO                                850          850 - ORLANDO                                     8551                ADERLEY                                           
D3448028800040304910420000166    0000000000001SOCIO PROPRIETARIO                                790          790 - MARCO AURELIO                               8007                TALITA.F                                          
D3448028800040375005590625       0000000000001SOCIO PROPRIETARIO                                740          740 - THIAGO AUGUSTO                              4498                VALQUES                                           
D3448028800040327571319668       0000000000001SOCIO PROPRIETARIO                                740          740 - THIAGO AUGUSTO                              4409                GEOVANE                                           
D3448028800040325349804000121    0000000000001SOCIO PROPRIETARIO                                850          850 - ORLANDO                                     8528                EUSTAQUIO                                         
D3448028800040321471885000187    0000000000001SOCIO PROPRIETARIO                                35           35 - THIAGO                                       3426                AMANDA LIMA                                       
D3448028800040326937824000267    0000000000001SOCIO PROPRIETARIO                                500          500 - FABIO GONCALVES                             508                 AFFONSO                                           
D3448028800040352843281000148    0000000000001SOCIO PROPRIETARIO                                900          900 - WASHINGTON                                  4688                SILVIA.SOAR                                       
D3448028800040311029322000180    0000000000001SOCIO PROPRIETARIO                                350          350 - JONATHAN                                    3522                NATALIA                                           
D3448028800040308288894000179    0000000000001SOCIO PROPRIETARIO                                350          350 - JONATHAN                                    3529                ANTONIO.QUEIR                                     
D3448028800040347977674000104    0000000000001SOCIO PROPRIETARIO                                500          500 - FABIO GONCALVES                             5089                ILBAMAR                                           
D3448028800040305543600000110    0000000000001SOCIO PROPRIETARIO                                500          500 - FABIO GONCALVES                             5097                HUGO                                              
D3448028800040357351021000179    0000000000001SOCIO PROPRIETARIO                                350          350 - JONATHAN                                    3547                KLEBERSON                                         
D3448028800040310930747000100    0000000000001SOCIO PROPRIETARIO                                350          350 - JONATHAN                                    3546                LEANDRO.CHAGAS                                    
D3448028800040346951943000109    0000000000001SOCIO PROPRIETARIO                                320          320 - FABIO                                       4641                CRISTIANE.SALES                                   
D3448028800040327643330000151    0000000000001SOCIO PROPRIETARIO                                80           80 - E-COMMERCE                                   79                  E-COMMERCE                                        
D3448028800040315676905000153    0000000000001SOCIO PROPRIETARIO                                900          900 - WASHINGTON                                  347                 DOMINGUES                                         
D3448028800040351821724000137    0000000000001SOCIO PROPRIETARIO                                350          350 - JONATHAN                                    5200                KAMILLA.F                                         
D3448028800040372671985000864    0000000000001SOCIO PROPRIETARIO                                500          500 - FABIO GONCALVES                             5092                LARISSA.SILVA                                     
D3448028800040315727708000116    0000000000001SOCIO PROPRIETARIO                                900          900 - WASHINGTON                                  4682                JEFERSON                                          
D3448028800040351718839000109    0000000000001SOCIO PROPRIETARIO                                350          350 - JONATHAN                                    3573                GUSTAVO                                           
D3448028800040372671985000198    0000000000001SOCIO PROPRIETARIO                                500          500 - FABIO GONCALVES                             5092                LARISSA.SILVA                                     
D3448028800040337942599000192    0000000000001SOCIO PROPRIETARIO                                350          350 - JONATHAN                                    3544                CRISTIANO                                         
D3448028800040343062612800       0000000000001SOCIO PROPRIETARIO                                900          900 - WASHINGTON                                  4682                JEFERSON                                          
D3448028800040355624498000589    0000000000001SOCIO PROPRIETARIO                                230          230 - NILTON                                      1779                EDSON.PEREZ                                       
D3448028800040371646590000172    0000000000001SOCIO PROPRIETARIO                                500          500 - FABIO GONCALVES                             5096                ANTONIEL.SOUSA                                    
D3448028800040342722580000170    0000000000001SOCIO PROPRIETARIO                                320          320 - FABIO                                       2372                JEFERSON                                          
D3448028800040344448892000163    0000000000001SOCIO PROPRIETARIO                                350          350 - JONATHAN                                    1924                RITA                                              
D3448028800040312439369000184    0000000000001SOCIO PROPRIETARIO                                230          230 - NILTON                                      1776                FERNANDO.MORIS                                    
D3448028800040323540228000170    0000000000001SOCIO PROPRIETARIO                                500          500 - FABIO GONCALVES                             5029                DANILO                                            
D3448028800040331504595000146    0000000000001SOCIO PROPRIETARIO                                320          320 - FABIO                                       2372                JEFERSON                                          
D3448028800040340601210000150    0000000000001SOCIO PROPRIETARIO                                950          950 - MARCIO                                      9561                ROMEU.ALVES                                       
D3448028800040317805213000274    0000000000001SOCIO PROPRIETARIO                                500          500 - FABIO GONCALVES                             514                 MARTINS                                           
D3448028800040349792074000105    0000000000001SOCIO PROPRIETARIO                                350          350 - JONATHAN                                    3544                CRISTIANO                                         
D3448028800040327744349000194    0000000000001SOCIO PROPRIETARIO                                950          950 - MARCIO                                      9557                ANTONIO.SILVA                                     
D3448028800040346531354000163    0000000000001SOCIO PROPRIETARIO                                230          230 - NILTON                                      1876                JOAO.GILBERTO                                     
D3448028800040335364121000105    0000000000001SOCIO PROPRIETARIO                                900          900 - WASHINGTON                                  4977                MARCELO.MATOS                                     
D3448028800040315088303000185    0000000000001SOCIO PROPRIETARIO                                900          900 - WASHINGTON                                  4682                JEFERSON                                          
D3448028800040374294000000188    0000000000001SOCIO PROPRIETARIO                                500          500 - FABIO GONCALVES                             6032                MICHAEL                                           
D3448028800040304940360000124    0000000000001SOCIO PROPRIETARIO                                900          900 - WASHINGTON                                  4664                ERIC                                              
D3448028800040301282122000180    0000000000001SOCIO PROPRIETARIO                                230          230 - NILTON                                      1796                DJALMA                                            
D3448028800040307009209000165    0000000000001SOCIO PROPRIETARIO                                950          950 - MARCIO                                      9557                ANTONIO.SILVA                                     
D3448028800040342201581000170    0000000000001SOCIO PROPRIETARIO                                350          350 - JONATHAN                                    3522                NATALIA                                           
D3448028800040300559916000186    0000000000001SOCIO PROPRIETARIO                                320          320 - FABIO                                       2374                CARLOS ALBERTO                                    
D3448028800040348694032000160    0000000000001SOCIO PROPRIETARIO                                320          320 - FABIO                                       2372                JEFERSON                                          
D3448028800040312856059000165    0000000000001SOCIO PROPRIETARIO                                950          950 - MARCIO                                      984                 OSVINO                                            
D3448028800040352410982000193    0000000000001SOCIO PROPRIETARIO                                350          350 - JONATHAN                                    1924                RITA                                              
D3448028800040332854823000170    0000000000001SOCIO PROPRIETARIO                                320          320 - FABIO                                       2381                MAIARA                                            
D3448028800040351443785000108    0000000000001SOCIO PROPRIETARIO                                900          900 - WASHINGTON                                  4672                ANDREA                                            
D3448028800040351741612000176    0000000000001SOCIO PROPRIETARIO                                230          230 - NILTON                                      1876                JOAO.GILBERTO                                     
D3448028800040354578299000195    0000000000001SOCIO PROPRIETARIO                                900          900 - WASHINGTON                                  347                 DOMINGUES                                         
D3448028800040345221215000170    0000000000001SOCIO PROPRIETARIO                                500          500 - FABIO GONCALVES                             5034                RUBENS.MEND                                       
D3448028800040306220497000563    0000000000001SOCIO PROPRIETARIO                                500          500 - FABIO GONCALVES                             508                 AFFONSO                                           
D3448028800040335555088000192    0000000000001SOCIO PROPRIETARIO                                350          350 - JONATHAN                                    3700                RENATO                                            
D3448028800040328932175000156    0000000000001SOCIO PROPRIETARIO                                350          350 - JONATHAN                                    3564                FABIO OLIVEIRA                                    
D3448028800040348839312000110    0000000000001SOCIO PROPRIETARIO                                950          950 - MARCIO                                      984                 OSVINO                                            
D3448028800040314543582000167    0000000000001SOCIO PROPRIETARIO                                850          850 - ORLANDO                                     8506                LAUDECI                                           
D3448028800040305453955000118    0000000000001SOCIO PROPRIETARIO                                740          740 - THIAGO AUGUSTO                              7322                SARA                                              
D3448028800040340290111000102    0000000000001SOCIO PROPRIETARIO                                890          890 - HELDER                                      2551                JOCIMAR                                           
D3448028800040371037022000174    0000000000001SOCIO PROPRIETARIO                                850          850 - ORLANDO                                     8506                LAUDECI                                           
D3448028800040319250984000430    0000000000001SOCIO PROPRIETARIO                                330          330 - ANDERSON                                    4442                LAIZ                                              
D3448028800040300683631683       0000000000001SOCIO PROPRIETARIO                                890          890 - HELDER                                      2564                ITALO                                             
D3448028800040310851170650       0000000000001SOCIO PROPRIETARIO                                740          740 - THIAGO AUGUSTO                              4446                HERBERTH                                          
D3448028800040334436388000190    0000000000001SOCIO PROPRIETARIO                                740          740 - THIAGO AUGUSTO                              4409                GEOVANE                                           
D3448028800040325836495000114    0000000000001SOCIO PROPRIETARIO                                740          740 - THIAGO AUGUSTO                              4409                GEOVANE                                           
D3448028800040322217673000130    0000000000001SOCIO PROPRIETARIO                                740          740 - THIAGO AUGUSTO                              4498                VALQUES                                           
D3448028800040302848686000109    0000000000001SOCIO PROPRIETARIO                                740          740 - THIAGO AUGUSTO                              2567                KARMENIA                                          
D3448028800040329365256000184    0000000000001SOCIO PROPRIETARIO                                830          830 - JULIO CESAR                                 4494                JESSE                                             
D3448028800040305094805606       0000000000001SOCIO PROPRIETARIO                                790          790 - MARCO AURELIO                               676                 MAURICIO                                          
D3448028800040318171718000106    0000000000001SOCIO PROPRIETARIO                                740          740 - THIAGO AUGUSTO                              7305                ARIANO                                            
D3448028800040302958193000113    0000000000001SOCIO PROPRIETARIO                                100          100 - GER.BALCAO                                  104                 LUCATELLI                                         
D3448028800040350207302000103    0000000000001SOCIO PROPRIETARIO                                330          330 - ANDERSON                                    3316                ANA MARIA                                         
D3448028800040326850870000143    0000000000001SOCIO PROPRIETARIO                                800          800 - SANDRO                                      891                 L. DIAS                                           
D3448028800040322069520000355    0000000000001SOCIO PROPRIETARIO                                330          330 - ANDERSON                                    555                 FERNANDO                                          
D3448028800040302741652000293    0000000000001SOCIO PROPRIETARIO                                830          830 - JULIO CESAR                                 8322                EDER.SOUZA                                        
D3448028800040309584671618       0000000000001SOCIO PROPRIETARIO                                830          830 - JULIO CESAR                                 8326                MAURO.LIMA                                        
D3448028800040318510982001522    0000000000001SOCIO PROPRIETARIO                                830          830 - JULIO CESAR                                 8333                HENRIQUE                                          
D3448028800040318468199000495    0000000000001SOCIO PROPRIETARIO                                830          830 - JULIO CESAR                                 4494                JESSE                                             
D3448028800040300411351000195    0000000000001SOCIO PROPRIETARIO                                330          330 - ANDERSON                                    4470                EDSON.ALM                                         
D3448028800040326363119000112    0000000000001SOCIO PROPRIETARIO                                800          800 - SANDRO                                      852                 HERALDO                                           
D3448028800040301664859000168    0000000000001SOCIO PROPRIETARIO                                800          800 - SANDRO                                      8223                JULIANO.SOARES                                    
D3448028800040303083876000137    0000000000001SOCIO PROPRIETARIO                                830          830 - JULIO CESAR                                 4494                JESSE                                             
D3448028800040325926205000123    0000000000001SOCIO PROPRIETARIO                                830          830 - JULIO CESAR                                 8322                EDER.SOUZA                                        
D3448028800040304900795000145    0000000000001SOCIO PROPRIETARIO                                830          830 - JULIO CESAR                                 8357                GERALDO.CORDEIR                                   
D3448028800040335967414000179    0000000000001SOCIO PROPRIETARIO                                830          830 - JULIO CESAR                                 8337                FREDERICO                                         
D3448028800040321414958000956    0000000000001SOCIO PROPRIETARIO                                800          800 - SANDRO                                      8211                BARROS                                            
D3448028800040306966223000194    0000000000001SOCIO PROPRIETARIO                                830          830 - JULIO CESAR                                 8336                GIANE                                             
D3448028800040302160363000110    0000000000001SOCIO PROPRIETARIO                                830          830 - JULIO CESAR                                 8359                CLAUDY                                            
D3448028800040354176660000157    0000000000001SOCIO PROPRIETARIO                                700          700 - PERBONI                                     4010                ALVES                                             
D3448028800040326542785000118    0000000000001SOCIO PROPRIETARIO                                400          400 - MARTINUCCI                                  457                 MARCELO                                           
D3448028800040350883781000188    0000000000001SOCIO PROPRIETARIO                                300          300 - FERDINANDO                                  3276                THIAGO.SILV                                       
D3448028800040305648478000146    0000000000001SOCIO PROPRIETARIO                                200          200 - ESTEFANIO                                   1364                VALERIA.CAV                                       
D3448028800040309430889000111    0000000000001SOCIO PROPRIETARIO                                600          600 - LUIZ ANDRADE                                902                 BINHO                                             
D3448028800040308468552000130    0000000000001SOCIO PROPRIETARIO                                700          700 - PERBONI                                     710                 CATINI                                            
D3448028800040332447888000100    0000000000001SOCIO PROPRIETARIO                                300          300 - FERDINANDO                                  1849                MARCIO.DENAR                                      
D3448028800040300286528000411    0000000000001SOCIO PROPRIETARIO                                400          400 - MARTINUCCI                                  2916                AGNALDO.HER                                       
D3448028800040371782163000464    0000000000001SOCIO PROPRIETARIO                                700          700 - PERBONI                                     758                 SALA                                              
D3448028800040329578255000118    0000000000001SOCIO PROPRIETARIO                                400          400 - MARTINUCCI                                  404                 BASSO                                             
D3448028800040345675691000161    0000000000001SOCIO PROPRIETARIO                                400          400 - MARTINUCCI                                  4132                FELIPE.COSTA                                      
D3448028800040301410453000159    0000000000001SOCIO PROPRIETARIO                                200          200 - ESTEFANIO                                   1336                WELTON                                            
D3448028800040350951141000168    0000000000001SOCIO PROPRIETARIO                                300          300 - FERDINANDO                                  3287                GABRIEL.MAR                                       
D3448028800040314842543000160    0000000000001SOCIO PROPRIETARIO                                300          300 - FERDINANDO                                  3280                DJALMA.SIL                                        
D3448028800040324426100000142    0000000000001SOCIO PROPRIETARIO                                300          300 - FERDINANDO                                  1840                RODRIGO.VERTONI                                   
D3448028800040322069520003028    0000000000001SOCIO PROPRIETARIO                                700          700 - PERBONI                                     605                 SINOTT                                            
D3448028800040331006748000125    0000000000001SOCIO PROPRIETARIO                                200          200 - ESTEFANIO                                   1370                GABRIEL ASSIS                                     
D3448028800040304164946000144    0000000000001SOCIO PROPRIETARIO                                600          600 - LUIZ ANDRADE                                6835                CLAUDIO                                           
D3448028800040300616459000114    0000000000001SOCIO PROPRIETARIO                                400          400 - MARTINUCCI                                  411                 CALDEIRA                                          
D3448028800040342427267000100    0000000000001SOCIO PROPRIETARIO                                400          400 - MARTINUCCI                                  2914                ADELICIO.SANTOS                                   
D3448028800040306847981000193    0000000000001SOCIO PROPRIETARIO                                200          200 - ESTEFANIO                                   1355                FERNANDO                                          
D3448028800040304539703897       0000000000001SOCIO PROPRIETARIO                                300          300 - FERDINANDO                                  1826                VICENTE                                           
D3448028800040300008506000147    0000000000001SOCIO PROPRIETARIO                                300          300 - FERDINANDO                                  1849                MARCIO.DENAR                                      
D3448028800040309123416000171    0000000000001SOCIO PROPRIETARIO                                300          300 - FERDINANDO                                  1837                DJALMA.CAMARA                                     
D3448028800040310566100000133    0000000000001SOCIO PROPRIETARIO                                400          400 - MARTINUCCI                                  404                 BASSO                                             
D3448028800040300010627000123    0000000000001SOCIO PROPRIETARIO                                230          230 - NILTON                                      1630                OLIVEIRA                                          
D3448028800040348230564000147    0000000000001SOCIO PROPRIETARIO                                600          600 - LUIZ ANDRADE                                6829                RICARDO.RIB                                       
D3448028800040336490067000107    0000000000001SOCIO PROPRIETARIO                                400          400 - MARTINUCCI                                  4131                JULLIAN                                           
D3448028800040343981956000124    0000000000001SOCIO PROPRIETARIO                                200          200 - ESTEFANIO                                   1343                FRIAS                                             
D3448028800040301686709000155    0000000000001SOCIO PROPRIETARIO                                200          200 - ESTEFANIO                                   1357                CRISTIANE                                         
D3448028800040317430585000182    0000000000001SOCIO PROPRIETARIO                                400          400 - MARTINUCCI                                  4132                FELIPE.COSTA                                      
D3448028800040303550112000104    0000000000001SOCIO PROPRIETARIO                                400          400 - MARTINUCCI                                  4133                PEDRO                                             
D3448028800040333856341000112    0000000000001SOCIO PROPRIETARIO                                230          230 - NILTON                                      1799                ZECA                                              
D3448028800040314230136000100    0000000000001SOCIO PROPRIETARIO                                600          600 - LUIZ ANDRADE                                314                 ZUCCHINI                                          
D3448028800040320450601000103    0000000000001SOCIO PROPRIETARIO                                400          400 - MARTINUCCI                                  2914                ADELICIO.SANTOS                                   
D3448028800040309435252000118    0000000000001SOCIO PROPRIETARIO                                320          320 - FABIO                                       2381                MAIARA                                            
D3448028800040320379893000135    0000000000001SOCIO PROPRIETARIO                                500          500 - FABIO GONCALVES                             5092                LARISSA.SILVA                                     
D3448028800040355624498000660    0000000000001SOCIO PROPRIETARIO                                230          230 - NILTON                                      1779                EDSON.PEREZ                                       
D3448028800040306095125000129    0000000000001SOCIO PROPRIETARIO                                320          320 - FABIO                                       2323                WELLINGTON.NASC                                   
D3448028800040305240771000170    0000000000001SOCIO PROPRIETARIO                                230          230 - NILTON                                      1762                ADAO.SILV                                         
D3448028800040348436260000130    0000000000001SOCIO PROPRIETARIO                                950          950 - MARCIO                                      9560                GISLAINE                                          
D3448028800040334906737000190    0000000000001SOCIO PROPRIETARIO                                900          900 - WASHINGTON                                  926                 CLEIDE                                            
D3448028800040316881767000298    0000000000001SOCIO PROPRIETARIO                                350          350 - JONATHAN                                    4659                AGNALDO.PIN                                       
D3448028800040335319335000151    0000000000001SOCIO PROPRIETARIO                                350          350 - JONATHAN                                    2510                TAIS.SOUZ                                         
D3448028800040360081031000146    0000000000001SOCIO PROPRIETARIO                                230          230 - NILTON                                      1775                VINICIUS.CESAR                                    
D3448028800040352984918000116    0000000000001SOCIO PROPRIETARIO                                500          500 - FABIO GONCALVES                             5086                CICERO                                            
D3448028800040321405566000416    0000000000001SOCIO PROPRIETARIO                                32           32 - NICOLAU                                      3682                FLAVIO LIBRALAO                                   
D3448028800040310883042000171    0000000000001SOCIO PROPRIETARIO                                32           32 - NICOLAU                                      3623                FRANCINE                                          
D3448028800040334021722000144    0000000000001SOCIO PROPRIETARIO                                33           33 - GAZZIGNATO                                   3684                MARCELO                                           
D3448028800040352113196000205    0000000000001SOCIO PROPRIETARIO                                33           33 - GAZZIGNATO                                   3611                MAGNO SILVA                                       
D3448028800040353167298000195    0000000000001SOCIO PROPRIETARIO                                32           32 - NICOLAU                                      3476                FABIANA VIG.                                      
D3448028800040372762339000217    0000000000001SOCIO PROPRIETARIO                                35           35 - THIAGO                                       3438                JAMIR RIBEIRO                                     
D3448028800040341423092000108    0000000000001SOCIO PROPRIETARIO                                34           34 - CRISTIANO                                    3624                MARIA SUELI                                       
D3448028800040355399983000172    0000000000001SOCIO PROPRIETARIO                                34           34 - CRISTIANO                                    3396                IVAN CARLOS                                       
D3448028800040397535479000100    0000000000001SOCIO PROPRIETARIO                                34           34 - CRISTIANO                                    3352                NEILA SANTOS                                      
D3448028800040365870875000190    0000000000001SOCIO PROPRIETARIO                                35           35 - THIAGO                                       3600                ELAINE COSTA                                      
D3448028800040328618217000189    0000000000001SOCIO PROPRIETARIO                                40           40 - BRUNO PERRONE                                3628                MARLON OLIVEIRA                                   
D3448028800040333888690000116    0000000000001SOCIO PROPRIETARIO                                41           41 - MOISÉS                                       3675                FERNANDO SANTOS                                   
D3448028800040343972875000168    0000000000001SOCIO PROPRIETARIO                                30           30 - SYRINO                                       3005                YAGO.F                                            
D3448028800040355246775000133    0000000000001SOCIO PROPRIETARIO                                33           33 - GAZZIGNATO                                   3334                FERNANDO GOMES                                    
D3448028800040332933193000200    0000000000001SOCIO PROPRIETARIO                                320          320 - FABIO                                       2019                MARIA.COSTA                                       
D3448028800040311978658000199    0000000000001SOCIO PROPRIETARIO                                41           41 - MOISÉS                                       3675                FERNANDO SANTOS                                   
D3448028800040356907868000396    0000000000001SOCIO PROPRIETARIO                                350          350 - JONATHAN                                    2510                TAIS.SOUZ                                         
D3448028800040310404503000186    0000000000001SOCIO PROPRIETARIO                                800          800 - SANDRO                                      3309                ELAINE.MUN                                        
D3448028800040326742149000130    0000000000001SOCIO PROPRIETARIO                                800          800 - SANDRO                                      3304                PAULO.VIEIRA                                      
D3448028800040308314948000123    0000000000001SOCIO PROPRIETARIO                                830          830 - JULIO CESAR                                 8328                NILMAR                                            
D3448028800040310598692000175    0000000000001SOCIO PROPRIETARIO                                830          830 - JULIO CESAR                                 8319                HILTON                                            
D3448028800040386613916000213    0000000000001SOCIO PROPRIETARIO                                800          800 - SANDRO                                      8219                MONICA                                            
D3448028800040319626217000130    0000000000001SOCIO PROPRIETARIO                                100          100 - GER.BALCAO                                  104                 LUCATELLI                                         
D3448028800040317120907000197    0000000000001SOCIO PROPRIETARIO                                330          330 - ANDERSON                                    8002                BERLINE                                           
D3448028800040348304097000152    0000000000001SOCIO PROPRIETARIO                                830          830 - JULIO CESAR                                 8350                ALTAIR.SONSSIM                                    
D3448028800040309957303694       0000000000001SOCIO PROPRIETARIO                                800          800 - SANDRO                                      8208                GUSTAVO.GARC                                      
D3448028800040300028430646       0000000000001SOCIO PROPRIETARIO                                100          100 - GER.BALCAO                                  125                 TIAGO                                             
D3448028800040308911988000152    0000000000001SOCIO PROPRIETARIO                                100          100 - GER.BALCAO                                  125                 TIAGO                                             
D3448028800040331423910000100    0000000000001SOCIO PROPRIETARIO                                330          330 - ANDERSON                                    4482                EDIMAR                                            
D3448028800040318253336000121    0000000000001SOCIO PROPRIETARIO                                800          800 - SANDRO                                      8220                FELIPE.EDUARDO                                    
D3448028800040307054717000165    0000000000001SOCIO PROPRIETARIO                                830          830 - JULIO CESAR                                 8350                ALTAIR.SONSSIM                                    
D3448028800040305992907000106    0000000000001SOCIO PROPRIETARIO                                830          830 - JULIO CESAR                                 8334                CARLOS VENANCIO                                   
D3448028800040349070991000178    0000000000001SOCIO PROPRIETARIO                                800          800 - SANDRO                                      3309                ELAINE.MUN                                        
D3448028800040310920266000106    0000000000001SOCIO PROPRIETARIO                                330          330 - ANDERSON                                    4482                EDIMAR                                            
D3448028800040319216070000100    0000000000001SOCIO PROPRIETARIO                                330          330 - ANDERSON                                    4482                EDIMAR                                            
D3448028800040322577654000115    0000000000001SOCIO PROPRIETARIO                                330          330 - ANDERSON                                    822                 M.GONCALVES                                       
D3448028800040322647410000161    0000000000001SOCIO PROPRIETARIO                                330          330 - ANDERSON                                    3323                ARLINDO                                           
D3448028800040301956312000136    0000000000001SOCIO PROPRIETARIO                                830          830 - JULIO CESAR                                 8351                NEYR                                              
D3448028800040333252722000192    0000000000001SOCIO PROPRIETARIO                                330          330 - ANDERSON                                    3302                ALTIERES.AZ                                       
D3448028800040317620261000107    0000000000001SOCIO PROPRIETARIO                                830          830 - JULIO CESAR                                 8322                EDER.SOUZA                                        
D3448028800040321649223000154    0000000000001SOCIO PROPRIETARIO                                800          800 - SANDRO                                      8201                LUCIMARA                                          
D3448028800040341823507000122    0000000000001SOCIO PROPRIETARIO                                830          830 - JULIO CESAR                                 8352                SILVIO CESAR                                      
D3448028800040354568692687       0000000000001SOCIO PROPRIETARIO                                830          830 - JULIO CESAR                                 8328                NILMAR                                            
D3448028800040301937794000187    0000000000001SOCIO PROPRIETARIO                                800          800 - SANDRO                                      8209                LUIZ.SILVA                                        
D3448028800040323951833000303    0000000000001SOCIO PROPRIETARIO                                800          800 - SANDRO                                      852                 HERALDO                                           
D3448028800040318510982002766    0000000000001SOCIO PROPRIETARIO                                830          830 - JULIO CESAR                                 8333                HENRIQUE                                          
D3448028800040332845173000105    0000000000001SOCIO PROPRIETARIO                                800          800 - SANDRO                                      4478                GLAUCIA                                           
D3448028800040386452471000156    0000000000001SOCIO PROPRIETARIO                                800          800 - SANDRO                                      891                 L. DIAS                                           
D3448028800040342724782000151    0000000000001SOCIO PROPRIETARIO                                830          830 - JULIO CESAR                                 8349                MARCIO                                            
D3448028800040302023989000184    0000000000001SOCIO PROPRIETARIO                                800          800 - SANDRO                                      7501                CLEBER                                            
D3448028800040386613916000213    0000000000001SOCIO PROPRIETARIO                                800          800 - SANDRO                                      8222                MONICA                                            
D3448028800040331078812000183    0000000000001SOCIO PROPRIETARIO                                830          830 - JULIO CESAR                                 8337                FREDERICO                                         
D3448028800040318073214000153    0000000000001SOCIO PROPRIETARIO                                830          830 - JULIO CESAR                                 8337                FREDERICO                                         
D3448028800040333345506000191    0000000000001SOCIO PROPRIETARIO                                330          330 - ANDERSON                                    3306                IRINEU                                            
D3448028800040310367841000195    0000000000001SOCIO PROPRIETARIO                                830          830 - JULIO CESAR                                 8336                GIANE                                             
D3448028800040301864777000167    0000000000001SOCIO PROPRIETARIO                                830          830 - JULIO CESAR                                 8319                HILTON                                            
D3448028800040319971479000131    0000000000001SOCIO PROPRIETARIO                                330          330 - ANDERSON                                    822                 M.GONCALVES                                       
D3448028800040338668539000196    0000000000001SOCIO PROPRIETARIO                                330          330 - ANDERSON                                    3311                BLENNON                                           
D3448028800040319913419000162    0000000000001SOCIO PROPRIETARIO                                800          800 - SANDRO                                      3304                PAULO.VIEIRA                                      
D3448028800040319626217000300    0000000000001SOCIO PROPRIETARIO                                100          100 - GER.BALCAO                                  104                 LUCATELLI                                         
D3448028800040371506604000152    0000000000001SOCIO PROPRIETARIO                                830          830 - JULIO CESAR                                 8323                GLAUCIO                                           
D3448028800040304708231000105    0000000000001SOCIO PROPRIETARIO                                830          830 - JULIO CESAR                                 8334                CARLOS VENANCIO                                   
D3448028800040331247474000166    0000000000001SOCIO PROPRIETARIO                                830          830 - JULIO CESAR                                 8334                CARLOS VENANCIO                                   
D3448028800040313325509000156    0000000000001SOCIO PROPRIETARIO                                830          830 - JULIO CESAR                                 8350                ALTAIR.SONSSIM                                    
D3448028800040357309224000105    0000000000001SOCIO PROPRIETARIO                                35           35 - THIAGO                                       3426                AMANDA LIMA                                       
D3448028800040306029270000292    0000000000001SOCIO PROPRIETARIO                                31           31 - VIOTTO                                       3607                VANDER MARCELO                                    
D3448028800040300932885000167    0000000000001SOCIO PROPRIETARIO                                31           31 - VIOTTO                                       3455                JOSE CARLOS                                       
D3448028800040301031579001003    0000000000001SOCIO PROPRIETARIO                                31           31 - VIOTTO                                       3607                VANDER MARCELO                                    
D3448028800040301031579000201    0000000000001SOCIO PROPRIETARIO                                31           31 - VIOTTO                                       3607                VANDER MARCELO                                    
D3448028800040308690668000110    0000000000001SOCIO PROPRIETARIO                                31           31 - VIOTTO                                       3455                JOSE CARLOS                                       
D3448028800040314946330000189    0000000000001SOCIO PROPRIETARIO                                32           32 - NICOLAU                                      3496                MARIA VANDA                                       
D3448028800040326957336000130    0000000000001SOCIO PROPRIETARIO                                30           30 - SYRINO                                       3005                YAGO.F                                            
D3448028800040305229953000140    0000000000001SOCIO PROPRIETARIO                                34           34 - CRISTIANO                                    3342                GENESI                                            
D3448028800040313982438000164    0000000000001SOCIO PROPRIETARIO                                31           31 - VIOTTO                                       3455                JOSE CARLOS                                       
D3448028800040372821697000172    0000000000001SOCIO PROPRIETARIO                                32           32 - NICOLAU                                      3476                FABIANA VIG.                                      
D3448028800040302526596000193    0000000000001SOCIO PROPRIETARIO                                30           30 - SYRINO                                       3005                YAGO.F                                            
D3448028800040337579920000701    0000000000001SOCIO PROPRIETARIO                                40           40 - BRUNO PERRONE                                3351                RAILDE MARINHO                                    
D3448028800040346939009000163    0000000000001SOCIO PROPRIETARIO                                34           34 - CRISTIANO                                    3352                NEILA SANTOS                                      
D3448028800040311369356000113    0000000000001SOCIO PROPRIETARIO                                34           34 - CRISTIANO                                    3606                DANIELA HARA                                      
D3448028800040307105688000113    0000000000001SOCIO PROPRIETARIO                                31           31 - VIOTTO                                       3602                THAISA FAÇÃO                                      
D3448028800040351005403000164    0000000000001SOCIO PROPRIETARIO                                32           32 - NICOLAU                                      3681                ROBSON FILHO                                      
D3448028800040343063782000110    0000000000001SOCIO PROPRIETARIO                                30           30 - SYRINO                                       3005                YAGO.F                                            
D3448028800040308351532000347    0000000000001SOCIO PROPRIETARIO                                33           33 - GAZZIGNATO                                   3586                JULIO LINO                                        
D3448028800040347961595000105    0000000000001SOCIO PROPRIETARIO                                34           34 - CRISTIANO                                    3584                MARIUSA                                           
D3448028800040357361790000158    0000000000001SOCIO PROPRIETARIO                                41           41 - MOISÉS                                       3673                NILCEIA                                           
D3448028800040342903517000211    0000000000001SOCIO PROPRIETARIO                                40           40 - BRUNO PERRONE                                3628                MARLON OLIVEIRA                                   
D3448028800040342936449000106    0000000000001SOCIO PROPRIETARIO                                33           33 - GAZZIGNATO                                   3611                MAGNO SILVA                                       
D3448028800040329309941000193    0000000000001SOCIO PROPRIETARIO                                32           32 - NICOLAU                                      3454                JOAO SOARES                                       
D3448028800040345177443000190    0000000000001SOCIO PROPRIETARIO                                31           31 - VIOTTO                                       3666                BRUNO SANTOS                                      
D3448028800040318889955000107    0000000000001SOCIO PROPRIETARIO                                34           34 - CRISTIANO                                    3342                GENESI                                            
D3448028800040305347577000198    0000000000001SOCIO PROPRIETARIO                                41           41 - MOISÉS                                       3675                FERNANDO SANTOS                                   
D3448028800040304557687000111    0000000000001SOCIO PROPRIETARIO                                32           32 - NICOLAU                                      3657                MARYANNE                                          
D3448028800040365795825000195    0000000000001SOCIO PROPRIETARIO                                32           32 - NICOLAU                                      3383                WILLIANS POLO                                     
D3448028800040352554958000128    0000000000001SOCIO PROPRIETARIO                                33           33 - GAZZIGNATO                                   3451                MARLENE SILVA                                     
D3448028800040312008061000184    0000000000001SOCIO PROPRIETARIO                                35           35 - THIAGO                                       3438                JAMIR RIBEIRO                                     
D3448028800040322305549000127    0000000000001SOCIO PROPRIETARIO                                31           31 - VIOTTO                                       3654                MICHELE                                           
D3448028800040362093455000660    0000000000001SOCIO PROPRIETARIO                                33           33 - GAZZIGNATO                                   3664                LETICIA SOARES                                    
D3448028800040346412053000110    0000000000001SOCIO PROPRIETARIO                                40           40 - BRUNO PERRONE                                3433                RUTE MARQUES                                      
D3448028800040350041415000181    0000000000001SOCIO PROPRIETARIO                                35           35 - THIAGO                                       3438                JAMIR RIBEIRO                                     
D3448028800040309580548000203    0000000000001SOCIO PROPRIETARIO                                32           32 - NICOLAU                                      3454                JOAO SOARES                                       
D3448028800040321405566000254    0000000000001SOCIO PROPRIETARIO                                32           32 - NICOLAU                                      3682                FLAVIO LIBRALAO                                   
D3448028800040307653206000160    0000000000001SOCIO PROPRIETARIO                                32           32 - NICOLAU                                      3454                JOAO SOARES                                       
D3448028800040348356376000160    0000000000001SOCIO PROPRIETARIO                                32           32 - NICOLAU                                      3657                MARYANNE                                          
D3448028800040334693789000125    0000000000001SOCIO PROPRIETARIO                                33           33 - GAZZIGNATO                                   3611                MAGNO SILVA                                       
D3448028800040311265395000170    0000000000001SOCIO PROPRIETARIO                                35           35 - THIAGO                                       3426                AMANDA LIMA                                       
D3448028800040315527524000102    0000000000001SOCIO PROPRIETARIO                                33           33 - GAZZIGNATO                                   3684                MARCELO                                           
D3448028800040308821325000147    0000000000001SOCIO PROPRIETARIO                                32           32 - NICOLAU                                      3476                FABIANA VIG.                                      
D3448028800040353966469000146    0000000000001SOCIO PROPRIETARIO                                34           34 - CRISTIANO                                    3360                ARIANE CONSONI                                    
D3448028800040303700345000146    0000000000001SOCIO PROPRIETARIO                                32           32 - NICOLAU                                      3476                FABIANA VIG.                                      
D3448028800040301298888000153    0000000000001SOCIO PROPRIETARIO                                31           31 - VIOTTO                                       3683                ERICA COSTA                                       
D3448028800040352589775000148    0000000000001SOCIO PROPRIETARIO                                32           32 - NICOLAU                                      3657                MARYANNE                                          
D3448028800040311886521000104    0000000000001SOCIO PROPRIETARIO                                32           32 - NICOLAU                                      3482                LIGIA SOUZA                                       
D3448028800040367820498000100    0000000000001SOCIO PROPRIETARIO                                31           31 - VIOTTO                                       3417                SMOKOVITZ                                         
D3448028800040311390582000186    0000000000001SOCIO PROPRIETARIO                                31           31 - VIOTTO                                       4208                KARINA ZURDO                                      
D3448028800040300921933000111    0000000000001SOCIO PROPRIETARIO                                31           31 - VIOTTO                                       4208                KARINA ZURDO                                      
D3448028800040322977014000100    0000000000001SOCIO PROPRIETARIO                                35           35 - THIAGO                                       3426                AMANDA LIMA                                       
D3448028800040302646759000171    0000000000001SOCIO PROPRIETARIO                                32           32 - NICOLAU                                      3623                FRANCINE                                          
D3448028800040307671734000141    0000000000001SOCIO PROPRIETARIO                                35           35 - THIAGO                                       3426                AMANDA LIMA                                       
D3448028800040348013274000141    0000000000001SOCIO PROPRIETARIO                                34           34 - CRISTIANO                                    3584                MARIUSA                                           
D3448028800040318009276000104    0000000000001SOCIO PROPRIETARIO                                30           30 - SYRINO                                       3005                YAGO.F                                            
