HFV10   04850445000898
D3448028800040330077775000126    0000000000001SOCIO PROPRIETARIO                                830          830 - JULIO CESAR                                 8350                ALTAIR.SONSSIM                                    
D3448028800040321311444000622    0000000000001SOCIO PROPRIETARIO                                830          830 - JULIO CESAR                                 8356                EDIO.MAFU                                         
D3448028800040318510982001956    0000000000001SOCIO PROPRIETARIO                                830          830 - JULIO CESAR                                 8333                HENRIQUE                                          
D3448028800040326147238000138    0000000000001SOCIO PROPRIETARIO                                830          830 - JULIO CESAR                                 8333                HENRIQUE                                          
D3448028800040318510982002251    0000000000001SOCIO PROPRIETARIO                                830          830 - JULIO CESAR                                 8333                HENRIQUE                                          
D3448028800040303584958000165    0000000000001SOCIO PROPRIETARIO                                830          830 - JULIO CESAR                                 8322                EDER.SOUZA                                        
D3448028800040328892251000147    0000000000001SOCIO PROPRIETARIO                                330          330 - ANDERSON                                    3316                ANA MARIA                                         
D3448028800040307233335000107    0000000000001SOCIO PROPRIETARIO                                330          330 - ANDERSON                                    3308                LUIZ.BORGES                                       
D3448028800040321917466000126    0000000000001SOCIO PROPRIETARIO                                830          830 - JULIO CESAR                                 8326                MAURO.LIMA                                        
D3448028800040358113694000153    0000000000001SOCIO PROPRIETARIO                                830          830 - JULIO CESAR                                 8336                GIANE                                             
D3448028800040311025083000190    0000000000001SOCIO PROPRIETARIO                                330          330 - ANDERSON                                    3302                ALTIERES.AZ                                       
D3448028800040324334591000100    0000000000001SOCIO PROPRIETARIO                                830          830 - JULIO CESAR                                 8323                GLAUCIO                                           
D3448028800040325926205000395    0000000000001SOCIO PROPRIETARIO                                830          830 - JULIO CESAR                                 8322                EDER.SOUZA                                        
D3448028800040325926205000808    0000000000001SOCIO PROPRIETARIO                                830          830 - JULIO CESAR                                 8322                EDER.SOUZA                                        
D3448028800040342735870000159    0000000000001SOCIO PROPRIETARIO                                830          830 - JULIO CESAR                                 8357                GERALDO.CORDEIR                                   
D3448028800040331666748000151    0000000000001SOCIO PROPRIETARIO                                830          830 - JULIO CESAR                                 8334                CARLOS VENANCIO                                   
D3448028800040310463830000109    0000000000001SOCIO PROPRIETARIO                                330          330 - ANDERSON                                    3306                IRINEU                                            
D3448028800040308262551000135    0000000000001SOCIO PROPRIETARIO                                800          800 - SANDRO                                      755                 EDWARD                                            
D3448028800040357387770000156    0000000000001SOCIO PROPRIETARIO                                830          830 - JULIO CESAR                                 8359                CLAUDY                                            
D3448028800040301858989000301    0000000000001SOCIO PROPRIETARIO                                800          800 - SANDRO                                      3313                CORREA                                            
D3448028800040357171951000140    0000000000001SOCIO PROPRIETARIO                                400          400 - MARTINUCCI                                  416                 DIMAS                                             
D3448028800040309634249000123    0000000000001SOCIO PROPRIETARIO                                600          600 - LUIZ ANDRADE                                3292                FELIX                                             
D3448028800040339814063000117    0000000000001SOCIO PROPRIETARIO                                200          200 - ESTEFANIO                                   1355                FERNANDO                                          
D3448028800040346887456000116    0000000000001SOCIO PROPRIETARIO                                400          400 - MARTINUCCI                                  2914                ADELICIO.SANTOS                                   
D3448028800040340167327000177    0000000000001SOCIO PROPRIETARIO                                200          200 - ESTEFANIO                                   1343                FRIAS                                             
D3448028800040332240050000132    0000000000001SOCIO PROPRIETARIO                                200          200 - ESTEFANIO                                   464                 LUCHETTI                                          
D3448028800040323637077001659    0000000000001SOCIO PROPRIETARIO                                111          Generalista P.Severini                            1111                P.Severini                                        
D3448028800040303317844000159    0000000000001SOCIO PROPRIETARIO                                600          600 - LUIZ ANDRADE                                915                 ARAUJO                                            
D3448028800040309248491000169    0000000000001SOCIO PROPRIETARIO                                200          200 - ESTEFANIO                                   1315                PAULINO                                           
D3448028800040344671652000123    0000000000001SOCIO PROPRIETARIO                                400          400 - MARTINUCCI                                  2914                ADELICIO.SANTOS                                   
D3448028800040331357094001075    0000000000001SOCIO PROPRIETARIO                                700          700 - PERBONI                                     4104                VIEIRA                                            
D3448028800040305404471000189    0000000000001SOCIO PROPRIETARIO                                600          600 - LUIZ ANDRADE                                6812                LARISSA                                           
D3448028800040355390868000137    0000000000001SOCIO PROPRIETARIO                                600          600 - LUIZ ANDRADE                                3292                FELIX                                             
D3448028800040353801007000179    0000000000001SOCIO PROPRIETARIO                                82           82 - E-COMMERCE 501                               82                  E-COMMERCE                                        
D3448028800040317259253000268    0000000000001SOCIO PROPRIETARIO                                230          230 - NILTON                                      1630                OLIVEIRA                                          
D3448028800040330082129000157    0000000000001SOCIO PROPRIETARIO                                950          950 - MARCIO                                      9558                PAULO.ESPINHEL                                    
D3448028800040309609513000250    0000000000001SOCIO PROPRIETARIO                                500          500 - FABIO GONCALVES                             5099                GILBERTO                                          
D3448028800040304617174000159    0000000000001SOCIO PROPRIETARIO                                900          900 - WASHINGTON                                  347                 DOMINGUES                                         
D3448028800040358752122000114    0000000000001SOCIO PROPRIETARIO                                900          900 - WASHINGTON                                  1935                M.OLIVEIR                                         
D3448028800040318534845000122    0000000000001SOCIO PROPRIETARIO                                350          350 - JONATHAN                                    7310                MARIA DAS DORES                                   
D3448028800040326793527000104    0000000000001SOCIO PROPRIETARIO                                230          230 - NILTON                                      1795                PAULA.ROBERTA.F                                   
D3448028800040338028402000177    0000000000001SOCIO PROPRIETARIO                                320          320 - FABIO                                       2381                MAIARA                                            
D3448028800040346744080000190    0000000000001SOCIO PROPRIETARIO                                950          950 - MARCIO                                      9563                CARLOS.EDUARDO                                    
D3448028800040328010481000135    0000000000001SOCIO PROPRIETARIO                                500          500 - FABIO GONCALVES                             6032                MICHAEL                                           
D3448028800040337665123000151    0000000000001SOCIO PROPRIETARIO                                500          500 - FABIO GONCALVES                             5044                JOAO.SOARES                                       
D3448028800040344480747000160    0000000000001SOCIO PROPRIETARIO                                320          320 - FABIO                                       4625                ELISMAR.JOSE                                      
D3448028800040321275344000183    0000000000001SOCIO PROPRIETARIO                                950          950 - MARCIO                                      984                 OSVINO                                            
D3448028800040312670641000132    0000000000001SOCIO PROPRIETARIO                                740          740 - THIAGO AUGUSTO                              4459                LEANDRO.ROCHA                                     
D3448028800040315506733000170    0000000000001SOCIO PROPRIETARIO                                740          740 - THIAGO AUGUSTO                              4409                GEOVANE                                           
D3448028800040332296378000685    0000000000001SOCIO PROPRIETARIO                                790          790 - MARCO AURELIO                               7926                THIAGO.RAMOS                                      
D3448028800040311981871000150    0000000000001SOCIO PROPRIETARIO                                740          740 - THIAGO AUGUSTO                              4459                LEANDRO.ROCHA                                     
D3448028800040338700555000119    0000000000001SOCIO PROPRIETARIO                                790          790 - MARCO AURELIO                               4417                RIVALDO                                           
D3448028800040364424245000129    0000000000001SOCIO PROPRIETARIO                                850          850 - ORLANDO                                     8506                LAUDECI                                           
D3448028800040304720256600       0000000000001SOCIO PROPRIETARIO                                890          890 - HELDER                                      8950                IVANI                                             
D3448028800040308071969000165    0000000000001SOCIO PROPRIETARIO                                790          790 - MARCO AURELIO                               7943                JONES                                             
D3448028800040321206040001640    0000000000001SOCIO PROPRIETARIO                                740          740 - THIAGO AUGUSTO                              7308                PATRICIA.SILVA                                    
D3448028800040305409983000138    0000000000001SOCIO PROPRIETARIO                                740          740 - THIAGO AUGUSTO                              7322                SARA                                              
D3448028800040355508052000165    0000000000001SOCIO PROPRIETARIO                                740          740 - THIAGO AUGUSTO                              7305                ARIANO                                            
D3448028800040309512889000160    0000000000001SOCIO PROPRIETARIO                                850          850 - ORLANDO                                     8509                ANGELICA                                          
D3448028800040304758889000121    0000000000001SOCIO PROPRIETARIO                                330          330 - ANDERSON                                    4473                DIVINO                                            
D3448028800040321258010000100    0000000000001SOCIO PROPRIETARIO                                740          740 - THIAGO AUGUSTO                              2567                KARMENIA                                          
D3448028800040300086860000190    0000000000001SOCIO PROPRIETARIO                                740          740 - THIAGO AUGUSTO                              7324                CRISTIANE.REIS                                    
D3448028800040338302524000100    0000000000001SOCIO PROPRIETARIO                                30           30 - SYRINO                                       3005                YAGO.F                                            
D3448028800040331583072000132    0000000000001SOCIO PROPRIETARIO                                35           35 - THIAGO                                       3462                SARA MORAES                                       
D3448028800040328441256000153    0000000000001SOCIO PROPRIETARIO                                35           35 - THIAGO                                       3432                ALINE CRISTINA                                    
D3448028800040355522661000179    0000000000001SOCIO PROPRIETARIO                                34           34 - CRISTIANO                                    3584                MARIUSA                                           
D3448028800040306077545000182    0000000000001SOCIO PROPRIETARIO                                41           41 - MOISÉS                                       4203                EVANDRO MENDES                                    
D3448028800040353138616000190    0000000000001SOCIO PROPRIETARIO                                34           34 - CRISTIANO                                    3360                ARIANE CONSONI                                    
D3448028800040304012916000112    0000000000001SOCIO PROPRIETARIO                                40           40 - BRUNO PERRONE                                3598                MARIA SANTOS                                      
D3448028800040333821487000203    0000000000001SOCIO PROPRIETARIO                                34           34 - CRISTIANO                                    3584                MARIUSA                                           
D3448028800040331684694000157    0000000000001SOCIO PROPRIETARIO                                40           40 - BRUNO PERRONE                                3351                RAILDE MARINHO                                    
D3448028800040309580548002508    0000000000001SOCIO PROPRIETARIO                                32           32 - NICOLAU                                      3454                JOAO SOARES                                       
D3448028800040311217302000132    0000000000001SOCIO PROPRIETARIO                                35           35 - THIAGO                                       3426                AMANDA LIMA                                       
D3448028800040317507347000128    0000000000001SOCIO PROPRIETARIO                                34           34 - CRISTIANO                                    3396                IVAN CARLOS                                       
D3448028800040309580548003490    0000000000001SOCIO PROPRIETARIO                                32           32 - NICOLAU                                      3454                JOAO SOARES                                       
D3448028800040353921348000188    0000000000001SOCIO PROPRIETARIO                                35           35 - THIAGO                                       3438                JAMIR RIBEIRO                                     
D3448028800040309676667000183    0000000000001SOCIO PROPRIETARIO                                32           32 - NICOLAU                                      3482                LIGIA SOUZA                                       
D3448028800040346000549000187    0000000000001SOCIO PROPRIETARIO                                33           33 - GAZZIGNATO                                   3334                FERNANDO GOMES                                    
D3448028800040371648471000159    0000000000001SOCIO PROPRIETARIO                                40           40 - BRUNO PERRONE                                3632                EQUIPE 40                                         
D3448028800040344162493000131    0000000000001SOCIO PROPRIETARIO                                33           33 - GAZZIGNATO                                   3451                MARLENE SILVA                                     
D3448028800040359276790003362    0000000000001SOCIO PROPRIETARIO                                33           33 - GAZZIGNATO                                   3451                MARLENE SILVA                                     
D3448028800040309248472000132    0000000000001SOCIO PROPRIETARIO                                35           35 - THIAGO                                       3426                AMANDA LIMA                                       
D3448028800040321405566000505    0000000000001SOCIO PROPRIETARIO                                32           32 - NICOLAU                                      3682                FLAVIO LIBRALAO                                   
D3448028800040345259902000185    0000000000001SOCIO PROPRIETARIO                                34           34 - CRISTIANO                                    3584                MARIUSA                                           
D3448028800040320306607000101    0000000000001SOCIO PROPRIETARIO                                34           34 - CRISTIANO                                    3396                IVAN CARLOS                                       
D3448028800040342568290000114    0000000000001SOCIO PROPRIETARIO                                34           34 - CRISTIANO                                    3661                VINICIUS RAMPIM                                   
D3448028800040303912070000104    0000000000001SOCIO PROPRIETARIO                                34           34 - CRISTIANO                                    3661                VINICIUS RAMPIM                                   
D3448028800040330659539000118    0000000000001SOCIO PROPRIETARIO                                32           32 - NICOLAU                                      3347                ANNE CAROLINE                                     
D3448028800040308724540000200    0000000000001SOCIO PROPRIETARIO                                900          900 - WASHINGTON                                  4612                WELINGTON                                         
D3448028800040307738089000137    0000000000001SOCIO PROPRIETARIO                                330          330 - ANDERSON                                    3316                ANA MARIA                                         
D3448028800040318468199000223    0000000000001SOCIO PROPRIETARIO                                830          830 - JULIO CESAR                                 4494                JESSE                                             
D3448028800040318468199001033    0000000000001SOCIO PROPRIETARIO                                830          830 - JULIO CESAR                                 4494                JESSE                                             
D3448028800040307791995000103    0000000000001SOCIO PROPRIETARIO                                830          830 - JULIO CESAR                                 8351                NEYR                                              
D3448028800040352383952000135    0000000000001SOCIO PROPRIETARIO                                830          830 - JULIO CESAR                                 8359                CLAUDY                                            
D3448028800040319346618000136    0000000000001SOCIO PROPRIETARIO                                830          830 - JULIO CESAR                                 8351                NEYR                                              
D3448028800040356170231000106    0000000000001SOCIO PROPRIETARIO                                830          830 - JULIO CESAR                                 8328                NILMAR                                            
D3448028800040302741652000102    0000000000001SOCIO PROPRIETARIO                                830          830 - JULIO CESAR                                 8322                EDER.SOUZA                                        
D3448028800040303869541000149    0000000000001SOCIO PROPRIETARIO                                800          800 - SANDRO                                      3309                ELAINE.MUN                                        
D3448028800040320867474000142    0000000000001SOCIO PROPRIETARIO                                830          830 - JULIO CESAR                                 8317                ANDERSEN                                          
D3448028800040305312551000104    0000000000001SOCIO PROPRIETARIO                                830          830 - JULIO CESAR                                 8317                ANDERSEN                                          
D3448028800040319697531000103    0000000000001SOCIO PROPRIETARIO                                330          330 - ANDERSON                                    3317                ALESSANDER                                        
D3448028800040307811156000100    0000000000001SOCIO PROPRIETARIO                                330          330 - ANDERSON                                    3315                ELAINE.SIL.F                                      
D3448028800040321414958002908    0000000000001SOCIO PROPRIETARIO                                800          800 - SANDRO                                      8211                BARROS                                            
D3448028800040321392329000115    0000000000001SOCIO PROPRIETARIO                                330          330 - ANDERSON                                    3325                BRUNO.GALDINO                                     
D3448028800040342706139000103    0000000000001SOCIO PROPRIETARIO                                330          330 - ANDERSON                                    3325                BRUNO.GALDINO                                     
D3448028800040325036813000162    0000000000001SOCIO PROPRIETARIO                                830          830 - JULIO CESAR                                 4483                MATHEUS.ALM                                       
D3448028800040309113591000188    0000000000001SOCIO PROPRIETARIO                                830          830 - JULIO CESAR                                 8357                GERALDO.CORDEIR                                   
D3448028800040300378246000100    0000000000001SOCIO PROPRIETARIO                                830          830 - JULIO CESAR                                 8330                RODRIGO                                           
D3448028800040362198580691       0000000000001SOCIO PROPRIETARIO                                830          830 - JULIO CESAR                                 8323                GLAUCIO                                           
D3448028800040325085204000101    0000000000001SOCIO PROPRIETARIO                                830          830 - JULIO CESAR                                 8319                HILTON                                            
D3448028800040355767898000110    0000000000001SOCIO PROPRIETARIO                                830          830 - JULIO CESAR                                 8337                FREDERICO                                         
D3448028800040308611976000102    0000000000001SOCIO PROPRIETARIO                                330          330 - ANDERSON                                    8002                BERLINE                                           
D3448028800040300163986000382    0000000000001SOCIO PROPRIETARIO                                600          600 - LUIZ ANDRADE                                915                 ARAUJO                                            
D3448028800040300163986000625    0000000000001SOCIO PROPRIETARIO                                600          600 - LUIZ ANDRADE                                915                 ARAUJO                                            
D3448028800040300163986000544    0000000000001SOCIO PROPRIETARIO                                600          600 - LUIZ ANDRADE                                915                 ARAUJO                                            
D3448028800040343055652000136    0000000000001SOCIO PROPRIETARIO                                300          300 - FERDINANDO                                  1839                RENATO.STRAIOTO                                   
D3448028800040300140240000191    0000000000001SOCIO PROPRIETARIO                                230          230 - NILTON                                      1874                EDEMIR                                            
D3448028800040330300629000118    0000000000001SOCIO PROPRIETARIO                                600          600 - LUIZ ANDRADE                                915                 ARAUJO                                            
D3448028800040328435603000135    0000000000001SOCIO PROPRIETARIO                                200          200 - ESTEFANIO                                   207                 SIMAO                                             
D3448028800040313520892000101    0000000000001SOCIO PROPRIETARIO                                200          200 - ESTEFANIO                                   1360                LUIZ.SORIO                                        
D3448028800040308059240000173    0000000000001SOCIO PROPRIETARIO                                300          300 - FERDINANDO                                  1869                CAIO.MORAIS                                       
D3448028800040323473813000102    0000000000001SOCIO PROPRIETARIO                                200          200 - ESTEFANIO                                   1356                FERNANDA.BAGGIO                                   
D3448028800040360617693000198    0000000000001SOCIO PROPRIETARIO                                600          600 - LUIZ ANDRADE                                915                 ARAUJO                                            
D3448028800040313110471000285    0000000000001SOCIO PROPRIETARIO                                300          300 - FERDINANDO                                  1854                JOSE ANHANI                                       
D3448028800040307196566000180    0000000000001SOCIO PROPRIETARIO                                300          300 - FERDINANDO                                  262                 LUCAS                                             
D3448028800040304915219000171    0000000000001SOCIO PROPRIETARIO                                700          700 - PERBONI                                     606                 EDUARDO                                           
D3448028800040329160573000164    0000000000001SOCIO PROPRIETARIO                                230          230 - NILTON                                      1792                MARIO                                             
D3448028800040308824629000168    0000000000001SOCIO PROPRIETARIO                                350          350 - JONATHAN                                    4660                REGINA.PAULO                                      
D3448028800040332255178000170    0000000000001SOCIO PROPRIETARIO                                350          350 - JONATHAN                                    7310                MARIA DAS DORES                                   
D3448028800040305867810000163    0000000000001SOCIO PROPRIETARIO                                900          900 - WASHINGTON                                  4681                MARCUS VINICIUS                                   
D3448028800040320267996000103    0000000000001SOCIO PROPRIETARIO                                320          320 - FABIO                                       2323                WELLINGTON.NASC                                   
D3448028800040349867184000180    0000000000001SOCIO PROPRIETARIO                                500          500 - FABIO GONCALVES                             5086                CICERO                                            
D3448028800040337636064000193    0000000000001SOCIO PROPRIETARIO                                900          900 - WASHINGTON                                  347                 DOMINGUES                                         
D3448028800040349519149000170    0000000000001SOCIO PROPRIETARIO                                950          950 - MARCIO                                      9559                ANA LUCIA                                         
D3448028800040340075019000111    0000000000001SOCIO PROPRIETARIO                                350          350 - JONATHAN                                    3706                SIMONE GOMES                                      
D3448028800040301466535000115    0000000000001SOCIO PROPRIETARIO                                350          350 - JONATHAN                                    1924                RITA                                              
D3448028800040345956604000144    0000000000001SOCIO PROPRIETARIO                                350          350 - JONATHAN                                    1924                RITA                                              
D3448028800040337802711000190    0000000000001SOCIO PROPRIETARIO                                230          230 - NILTON                                      1753                HENRIQUE.POCO                                     
D3448028800040306220497000130    0000000000001SOCIO PROPRIETARIO                                500          500 - FABIO GONCALVES                             508                 AFFONSO                                           
D3448028800040331159157000198    0000000000001SOCIO PROPRIETARIO                                500          500 - FABIO GONCALVES                             5034                RUBENS.MEND                                       
D3448028800040352675610000199    0000000000001SOCIO PROPRIETARIO                                740          740 - THIAGO AUGUSTO                              7322                SARA                                              
D3448028800040320306460000150    0000000000001SOCIO PROPRIETARIO                                790          790 - MARCO AURELIO                               7944                GILMAR.RODR                                       
D3448028800040302926881000100    0000000000001SOCIO PROPRIETARIO                                890          890 - HELDER                                      2550                WASHINGTON                                        
D3448028800040316990509000169    0000000000001SOCIO PROPRIETARIO                                790          790 - MARCO AURELIO                               7980                FRANK                                             
D3448028800040336519226000140    0000000000001SOCIO PROPRIETARIO                                850          850 - ORLANDO                                     8515                REINALDO                                          
D3448028800040307351197000152    0000000000001SOCIO PROPRIETARIO                                740          740 - THIAGO AUGUSTO                              2567                KARMENIA                                          
D3448028800040308056758000153    0000000000001SOCIO PROPRIETARIO                                740          740 - THIAGO AUGUSTO                              7405                ELIANE                                            
D3448028800040327244886000175    0000000000001SOCIO PROPRIETARIO                                330          330 - ANDERSON                                    4474                RILDER                                            
D3448028800040316560463000229    0000000000001SOCIO PROPRIETARIO                                740          740 - THIAGO AUGUSTO                              7301                MICHEL                                            
D3448028800040307241446000157    0000000000001SOCIO PROPRIETARIO                                890          890 - HELDER                                      8926                CLEDSON                                           
D3448028800040321659198000190    0000000000001SOCIO PROPRIETARIO                                740          740 - THIAGO AUGUSTO                              7306                PAULO.CAFA                                        
D3448028800040301138586000207    0000000000001SOCIO PROPRIETARIO                                740          740 - THIAGO AUGUSTO                              7306                PAULO.CAFA                                        
D3448028800040321206040000245    0000000000001SOCIO PROPRIETARIO                                740          740 - THIAGO AUGUSTO                              7308                PATRICIA.SILVA                                    
D3448028800040305057604000198    0000000000001SOCIO PROPRIETARIO                                890          890 - HELDER                                      8919                ELON                                              
D3448028800040319870343000135    0000000000001SOCIO PROPRIETARIO                                740          740 - THIAGO AUGUSTO                              4498                VALQUES                                           
D3448028800040309912757000126    0000000000001SOCIO PROPRIETARIO                                790          790 - MARCO AURELIO                               7943                JONES                                             
D3448028800040320219796000185    0000000000001SOCIO PROPRIETARIO                                850          850 - ORLANDO                                     8528                EUSTAQUIO                                         
D3448028800040322533806000188    0000000000001SOCIO PROPRIETARIO                                740          740 - THIAGO AUGUSTO                              7300                WANDERSON                                         
D3448028800040321206040001136    0000000000001SOCIO PROPRIETARIO                                740          740 - THIAGO AUGUSTO                              7308                PATRICIA.SILVA                                    
D3448028800040321206040001721    0000000000001SOCIO PROPRIETARIO                                740          740 - THIAGO AUGUSTO                              7308                PATRICIA.SILVA                                    
D3448028800040364390875000200    0000000000001SOCIO PROPRIETARIO                                790          790 - MARCO AURELIO                               7926                THIAGO.RAMOS                                      
D3448028800040364390875000120    0000000000001SOCIO PROPRIETARIO                                790          790 - MARCO AURELIO                               7926                THIAGO.RAMOS                                      
D3448028800040313688109000105    0000000000001SOCIO PROPRIETARIO                                740          740 - THIAGO AUGUSTO                              7305                ARIANO                                            
D3448028800040325779489000172    0000000000001SOCIO PROPRIETARIO                                890          890 - HELDER                                      8951                VALCIONE                                          
D3448028800040329051980000133    0000000000001SOCIO PROPRIETARIO                                740          740 - THIAGO AUGUSTO                              7305                ARIANO                                            
D3448028800040331981789000132    0000000000001SOCIO PROPRIETARIO                                740          740 - THIAGO AUGUSTO                              7332                FABIO.S                                           
D3448028800040329432550000161    0000000000001SOCIO PROPRIETARIO                                790          790 - MARCO AURELIO                               7977                RAFAEL.SANTOS                                     
D3448028800040315201684629       0000000000001SOCIO PROPRIETARIO                                740          740 - THIAGO AUGUSTO                              4498                VALQUES                                           
D3448028800040332860533000130    0000000000001SOCIO PROPRIETARIO                                790          790 - MARCO AURELIO                               7944                GILMAR.RODR                                       
D3448028800040325944596000109    0000000000001SOCIO PROPRIETARIO                                790          790 - MARCO AURELIO                               4426                FLAVIO.ANTONIO                                    
D3448028800040320200681000149    0000000000001SOCIO PROPRIETARIO                                740          740 - THIAGO AUGUSTO                              4446                HERBERTH                                          
D3448028800040308732656000100    0000000000001SOCIO PROPRIETARIO                                740          740 - THIAGO AUGUSTO                              4409                GEOVANE                                           
D3448028800040338463604000147    0000000000001SOCIO PROPRIETARIO                                31           31 - VIOTTO                                       3683                ERICA COSTA                                       
D3448028800040319533953000143    0000000000001SOCIO PROPRIETARIO                                31           31 - VIOTTO                                       4208                KARINA ZURDO                                      
D3448028800040303039852000180    0000000000001SOCIO PROPRIETARIO                                34           34 - CRISTIANO                                    3352                NEILA SANTOS                                      
D3448028800040355247595000176    0000000000001SOCIO PROPRIETARIO                                33           33 - GAZZIGNATO                                   3451                MARLENE SILVA                                     
D3448028800040308534643000127    0000000000001SOCIO PROPRIETARIO                                32           32 - NICOLAU                                      3681                ROBSON FILHO                                      
D3448028800040302470487000100    0000000000001SOCIO PROPRIETARIO                                32           32 - NICOLAU                                      3623                FRANCINE                                          
D3448028800040345961828000144    0000000000001SOCIO PROPRIETARIO                                31           31 - VIOTTO                                       3607                VANDER MARCELO                                    
D3448028800040331139606000136    0000000000001SOCIO PROPRIETARIO                                31           31 - VIOTTO                                       3633                EQUIPE 31                                         
D3448028800040339622429000237    0000000000001SOCIO PROPRIETARIO                                35           35 - THIAGO                                       3426                AMANDA LIMA                                       
D3448028800040337721519000411    0000000000001SOCIO PROPRIETARIO                                35           35 - THIAGO                                       3426                AMANDA LIMA                                       
D3448028800040328567729000163    0000000000001SOCIO PROPRIETARIO                                34           34 - CRISTIANO                                    3342                GENESI                                            
D3448028800040334480288000403    0000000000001SOCIO PROPRIETARIO                                501          MM SP                                             10804               804-QUBIT SP                                      
D3448028800040309580548003148    0000000000001SOCIO PROPRIETARIO                                32           32 - NICOLAU                                      3454                JOAO SOARES                                       
D3448028800040312003055000800    0000000000001SOCIO PROPRIETARIO                                35           35 - THIAGO                                       3462                SARA MORAES                                       
D3448028800040340439335000125    0000000000001SOCIO PROPRIETARIO                                35           35 - THIAGO                                       3426                AMANDA LIMA                                       
D3448028800040331692140000100    0000000000001SOCIO PROPRIETARIO                                35           35 - THIAGO                                       3432                ALINE CRISTINA                                    
D3448028800040352513926000184    0000000000001SOCIO PROPRIETARIO                                34           34 - CRISTIANO                                    3661                VINICIUS RAMPIM                                   
D3448028800040311286600000184    0000000000001SOCIO PROPRIETARIO                                34           34 - CRISTIANO                                    3360                ARIANE CONSONI                                    
D3448028800040320817019000132    0000000000001SOCIO PROPRIETARIO                                34           34 - CRISTIANO                                    3352                NEILA SANTOS                                      
D3448028800040344627792000102    0000000000001SOCIO PROPRIETARIO                                34           34 - CRISTIANO                                    3584                MARIUSA                                           
D3448028800040342536031000101    0000000000001SOCIO PROPRIETARIO                                40           40 - BRUNO PERRONE                                3351                RAILDE MARINHO                                    
D3448028800040332423027000183    0000000000001SOCIO PROPRIETARIO                                34           34 - CRISTIANO                                    3360                ARIANE CONSONI                                    
D3448028800040318510982002413    0000000000001SOCIO PROPRIETARIO                                830          830 - JULIO CESAR                                 8333                HENRIQUE                                          
D3448028800040325399829000130    0000000000001SOCIO PROPRIETARIO                                800          800 - SANDRO                                      4478                GLAUCIA                                           
D3448028800040342807230000107    0000000000001SOCIO PROPRIETARIO                                830          830 - JULIO CESAR                                 8352                SILVIO CESAR                                      
D3448028800040318510982000470    0000000000001SOCIO PROPRIETARIO                                830          830 - JULIO CESAR                                 8333                HENRIQUE                                          
D3448028800040311412311000184    0000000000001SOCIO PROPRIETARIO                                830          830 - JULIO CESAR                                 8333                HENRIQUE                                          
D3448028800040318510982002090    0000000000001SOCIO PROPRIETARIO                                830          830 - JULIO CESAR                                 8333                HENRIQUE                                          
D3448028800040355879550000114    0000000000001SOCIO PROPRIETARIO                                830          830 - JULIO CESAR                                 4494                JESSE                                             
D3448028800040318468199000819    0000000000001SOCIO PROPRIETARIO                                830          830 - JULIO CESAR                                 4494                JESSE                                             
D3448028800040329412713000144    0000000000001SOCIO PROPRIETARIO                                800          800 - SANDRO                                      8209                LUIZ.SILVA                                        
D3448028800040308222249000153    0000000000001SOCIO PROPRIETARIO                                830          830 - JULIO CESAR                                 4494                JESSE                                             
D3448028800040312096581605       0000000000001SOCIO PROPRIETARIO                                830          830 - JULIO CESAR                                 8326                MAURO.LIMA                                        
D3448028800040303004976609       0000000000001SOCIO PROPRIETARIO                                830          830 - JULIO CESAR                                 8326                MAURO.LIMA                                        
D3448028800040300594326000194    0000000000001SOCIO PROPRIETARIO                                830          830 - JULIO CESAR                                 8316                FABIANO                                           
D3448028800040325865213000107    0000000000001SOCIO PROPRIETARIO                                800          800 - SANDRO                                      8220                FELIPE.EDUARDO                                    
D3448028800040349854695000168    0000000000001SOCIO PROPRIETARIO                                830          830 - JULIO CESAR                                 8337                FREDERICO                                         
D3448028800040321817739000403    0000000000001SOCIO PROPRIETARIO                                100          100 - GER.BALCAO                                  104                 LUCATELLI                                         
D3448028800040314948516000177    0000000000001SOCIO PROPRIETARIO                                330          330 - ANDERSON                                    3306                IRINEU                                            
D3448028800040301855728630       0000000000001SOCIO PROPRIETARIO                                830          830 - JULIO CESAR                                 8334                CARLOS VENANCIO                                   
D3448028800040306311489000603    0000000000001SOCIO PROPRIETARIO                                800          800 - SANDRO                                      8211                BARROS                                            
D3448028800040337518697000105    0000000000001SOCIO PROPRIETARIO                                830          830 - JULIO CESAR                                 8316                FABIANO                                           
D3448028800040305942358000157    0000000000001SOCIO PROPRIETARIO                                230          230 - NILTON                                      1604                EMERSON                                           
D3448028800040310176439000123    0000000000001SOCIO PROPRIETARIO                                500          500 - FABIO GONCALVES                             2904                JOSE.MELO                                         
D3448028800040311262657000143    0000000000001SOCIO PROPRIETARIO                                700          700 - PERBONI                                     7007                PAULA.ROBERTA.F                                   
D3448028800040310834955000106    0000000000001SOCIO PROPRIETARIO                                200          200 - ESTEFANIO                                   1333                RODOLFO.FURT                                      
D3448028800040300010627000395    0000000000001SOCIO PROPRIETARIO                                230          230 - NILTON                                      1630                OLIVEIRA                                          
D3448028800040323538109000182    0000000000001SOCIO PROPRIETARIO                                230          230 - NILTON                                      1792                MARIO                                             
D3448028800040353450953000118    0000000000001SOCIO PROPRIETARIO                                230          230 - NILTON                                      1762                ADAO.SILV                                         
D3448028800040309307130000146    0000000000001SOCIO PROPRIETARIO                                230          230 - NILTON                                      1714                CARLOS.MENDES                                     
D3448028800040344151695000188    0000000000001SOCIO PROPRIETARIO                                900          900 - WASHINGTON                                  4682                JEFERSON                                          
D3448028800040349323443000102    0000000000001SOCIO PROPRIETARIO                                900          900 - WASHINGTON                                  1935                M.OLIVEIR                                         
D3448028800040309369769000156    0000000000001SOCIO PROPRIETARIO                                900          900 - WASHINGTON                                  1935                M.OLIVEIR                                         
D3448028800040324815567000184    0000000000001SOCIO PROPRIETARIO                                320          320 - FABIO                                       2361                NATIENE                                           
D3448028800040358510271000177    0000000000001SOCIO PROPRIETARIO                                350          350 - JONATHAN                                    3573                GUSTAVO                                           
D3448028800040340439335000125    0000000000001SOCIO PROPRIETARIO                                500          500 - FABIO GONCALVES                             6032                MICHAEL                                           
D3448028800040339397599000184    0000000000001SOCIO PROPRIETARIO                                500          500 - FABIO GONCALVES                             5086                CICERO                                            
D3448028800040358727335000196    0000000000001SOCIO PROPRIETARIO                                500          500 - FABIO GONCALVES                             5093                GEIZIBEL.F                                        
D3448028800040349380834000169    0000000000001SOCIO PROPRIETARIO                                900          900 - WASHINGTON                                  4682                JEFERSON                                          
D3448028800040344004287000101    0000000000001SOCIO PROPRIETARIO                                900          900 - WASHINGTON                                  347                 DOMINGUES                                         
D3448028800040351150976000181    0000000000001SOCIO PROPRIETARIO                                790          790 - MARCO AURELIO                               7926                THIAGO.RAMOS                                      
D3448028800040323303170000140    0000000000001SOCIO PROPRIETARIO                                890          890 - HELDER                                      8919                ELON                                              
D3448028800040344386198000169    0000000000001SOCIO PROPRIETARIO                                740          740 - THIAGO AUGUSTO                              7322                SARA                                              
D3448028800040316693613000191    0000000000001SOCIO PROPRIETARIO                                740          740 - THIAGO AUGUSTO                              2556                EMERSON                                           
D3448028800040306104556000104    0000000000001SOCIO PROPRIETARIO                                890          890 - HELDER                                      8901                MILTON                                            
D3448028800040306036506000137    0000000000001SOCIO PROPRIETARIO                                790          790 - MARCO AURELIO                               8007                TALITA.F                                          
D3448028800040326332718000179    0000000000001SOCIO PROPRIETARIO                                740          740 - THIAGO AUGUSTO                              7407                WEMERSON                                          
D3448028800040344202069000173    0000000000001SOCIO PROPRIETARIO                                740          740 - THIAGO AUGUSTO                              7322                SARA                                              
D3448028800040314366821699       0000000000001SOCIO PROPRIETARIO                                790          790 - MARCO AURELIO                               4421                CARLOS.PAIVA                                      
D3448028800040321206040000679    0000000000001SOCIO PROPRIETARIO                                740          740 - THIAGO AUGUSTO                              7308                PATRICIA.SILVA                                    
D3448028800040305297705000136    0000000000001SOCIO PROPRIETARIO                                330          330 - ANDERSON                                    4442                LAIZ                                              
D3448028800040352113196000124    0000000000001SOCIO PROPRIETARIO                                33           33 - GAZZIGNATO                                   3611                MAGNO SILVA                                       
D3448028800040366181850000141    0000000000001SOCIO PROPRIETARIO                                32           32 - NICOLAU                                      3476                FABIANA VIG.                                      
D3448028800040308097203000150    0000000000001SOCIO PROPRIETARIO                                32           32 - NICOLAU                                      3623                FRANCINE                                          
D3448028800040337281545000123    0000000000001SOCIO PROPRIETARIO                                33           33 - GAZZIGNATO                                   3684                MARCELO                                           
D3448028800040335520528000176    0000000000001SOCIO PROPRIETARIO                                34           34 - CRISTIANO                                    3352                NEILA SANTOS                                      
D3448028800040311955410000102    0000000000001SOCIO PROPRIETARIO                                33           33 - GAZZIGNATO                                   3334                FERNANDO GOMES                                    
D3448028800040313538703000110    0000000000001SOCIO PROPRIETARIO                                33           33 - GAZZIGNATO                                   3451                MARLENE SILVA                                     
D3448028800040315624115000124    0000000000001SOCIO PROPRIETARIO                                41           41 - MOISÉS                                       3675                FERNANDO SANTOS                                   
D3448028800040349755384000141    0000000000001SOCIO PROPRIETARIO                                34           34 - CRISTIANO                                    3584                MARIUSA                                           
D3448028800040346640453000183    0000000000001SOCIO PROPRIETARIO                                34           34 - CRISTIANO                                    3617                WILLIAM ALVES                                     
D3448028800040343115557000180    0000000000001SOCIO PROPRIETARIO                                35           35 - THIAGO                                       3438                JAMIR RIBEIRO                                     
D3448028800040304172833000190    0000000000001SOCIO PROPRIETARIO                                40           40 - BRUNO PERRONE                                3598                MARIA SANTOS                                      
D3448028800040356387913000167    0000000000001SOCIO PROPRIETARIO                                32           32 - NICOLAU                                      3482                LIGIA SOUZA                                       
D3448028800040352694866000143    0000000000001SOCIO PROPRIETARIO                                41           41 - MOISÉS                                       3686                CARLOS PUPO                                       
D3448028800040309580548002923    0000000000001SOCIO PROPRIETARIO                                32           32 - NICOLAU                                      3454                JOAO SOARES                                       
D3448028800040320475858000110    0000000000001SOCIO PROPRIETARIO                                40           40 - BRUNO PERRONE                                3632                EQUIPE 40                                         
D3448028800040328010481000135    0000000000001SOCIO PROPRIETARIO                                35           35 - THIAGO                                       3426                AMANDA LIMA                                       
D3448028800040308014069000186    0000000000001SOCIO PROPRIETARIO                                34           34 - CRISTIANO                                    3398                RAQUEL CRISTINA                                   
D3448028800040310818923000109    0000000000001SOCIO PROPRIETARIO                                34           34 - CRISTIANO                                    3617                WILLIAM ALVES                                     
D3448028800040309373543000129    0000000000001SOCIO PROPRIETARIO                                31           31 - VIOTTO                                       3455                JOSE CARLOS                                       
D3448028800040341820566000147    0000000000001SOCIO PROPRIETARIO                                35           35 - THIAGO                                       3426                AMANDA LIMA                                       
D3448028800040321566253000105    0000000000001SOCIO PROPRIETARIO                                40           40 - BRUNO PERRONE                                3351                RAILDE MARINHO                                    
D3448028800040338323129000103    0000000000001SOCIO PROPRIETARIO                                30           30 - SYRINO                                       3005                YAGO.F                                            
D3448028800040311769554000174    0000000000001SOCIO PROPRIETARIO                                31           31 - VIOTTO                                       3683                ERICA COSTA                                       
D3448028800040307684973000136    0000000000001SOCIO PROPRIETARIO                                34           34 - CRISTIANO                                    3661                VINICIUS RAMPIM                                   
D3448028800040311029686000160    0000000000001SOCIO PROPRIETARIO                                34           34 - CRISTIANO                                    3398                RAQUEL CRISTINA                                   
D3448028800040324061684000108    0000000000001SOCIO PROPRIETARIO                                33           33 - GAZZIGNATO                                   3402                ANTONIO CORTEZE                                   
D3448028800040303373748000128    0000000000001SOCIO PROPRIETARIO                                34           34 - CRISTIANO                                    3584                MARIUSA                                           
D3448028800040368899624000126    0000000000001SOCIO PROPRIETARIO                                31           31 - VIOTTO                                       3455                JOSE CARLOS                                       
D3448028800040310618246000185    0000000000001SOCIO PROPRIETARIO                                32           32 - NICOLAU                                      3356                KAMILLA                                           
D3448028800040308363351000330    0000000000001SOCIO PROPRIETARIO                                34           34 - CRISTIANO                                    3584                MARIUSA                                           
D3448028800040308724540000120    0000000000001SOCIO PROPRIETARIO                                900          900 - WASHINGTON                                  4612                WELINGTON                                         
D3448028800040324542696000146    0000000000001SOCIO PROPRIETARIO                                830          830 - JULIO CESAR                                 8351                NEYR                                              
D3448028800040357032427000350    0000000000001SOCIO PROPRIETARIO                                800          800 - SANDRO                                      852                 HERALDO                                           
D3448028800040318510982000127    0000000000001SOCIO PROPRIETARIO                                830          830 - JULIO CESAR                                 8333                HENRIQUE                                          
D3448028800040309257824000116    0000000000001SOCIO PROPRIETARIO                                830          830 - JULIO CESAR                                 8334                CARLOS VENANCIO                                   
D3448028800040318468199001386    0000000000001SOCIO PROPRIETARIO                                830          830 - JULIO CESAR                                 4494                JESSE                                             
D3448028800040318468199000142    0000000000001SOCIO PROPRIETARIO                                830          830 - JULIO CESAR                                 4494                JESSE                                             
D3448028800040301922377000160    0000000000001SOCIO PROPRIETARIO                                830          830 - JULIO CESAR                                 8334                CARLOS VENANCIO                                   
D3448028800040348961033000205    0000000000001SOCIO PROPRIETARIO                                830          830 - JULIO CESAR                                 8351                NEYR                                              
D3448028800040316970527000189    0000000000001SOCIO PROPRIETARIO                                100          100 - GER.BALCAO                                  104                 LUCATELLI                                         
D3448028800040341741190000185    0000000000001SOCIO PROPRIETARIO                                800          800 - SANDRO                                      8223                JULIANO.SOARES                                    
D3448028800040364440555000641    0000000000001SOCIO PROPRIETARIO                                830          830 - JULIO CESAR                                 8356                EDIO.MAFU                                         
D3448028800040303167122000165    0000000000001SOCIO PROPRIETARIO                                830          830 - JULIO CESAR                                 8357                GERALDO.CORDEIR                                   
D3448028800040352779044000165    0000000000001SOCIO PROPRIETARIO                                830          830 - JULIO CESAR                                 8334                CARLOS VENANCIO                                   
D3448028800040305582801618       0000000000001SOCIO PROPRIETARIO                                830          830 - JULIO CESAR                                 8351                NEYR                                              
D3448028800040307113603000149    0000000000001SOCIO PROPRIETARIO                                830          830 - JULIO CESAR                                 8323                GLAUCIO                                           
D3448028800040329042170000110    0000000000001SOCIO PROPRIETARIO                                830          830 - JULIO CESAR                                 8319                HILTON                                            
D3448028800040326584421000109    0000000000001SOCIO PROPRIETARIO                                800          800 - SANDRO                                      3309                ELAINE.MUN                                        
D3448028800040301445243000104    0000000000001SOCIO PROPRIETARIO                                300          300 - FERDINANDO                                  1837                DJALMA.CAMARA                                     
D3448028800040301094896000188    0000000000001SOCIO PROPRIETARIO                                300          300 - FERDINANDO                                  3291                FININHO                                           
D3448028800040346061900000140    0000000000001SOCIO PROPRIETARIO                                400          400 - MARTINUCCI                                  4140                APARECIDO                                         
D3448028800040300236199000151    0000000000001SOCIO PROPRIETARIO                                200          200 - ESTEFANIO                                   207                 SIMAO                                             
D3448028800040334194708000142    0000000000001SOCIO PROPRIETARIO                                200          200 - ESTEFANIO                                   1349                ANTONIO                                           
D3448028800040300608710000107    0000000000001SOCIO PROPRIETARIO                                200          200 - ESTEFANIO                                   1344                FABRICIO                                          
D3448028800040345680246000190    0000000000001SOCIO PROPRIETARIO                                700          700 - PERBONI                                     2927                HERCULES                                          
D3448028800040300010627000204    0000000000001SOCIO PROPRIETARIO                                230          230 - NILTON                                      1630                OLIVEIRA                                          
D3448028800040337465883000115    0000000000001SOCIO PROPRIETARIO                                87           87 - V4 COMPANY SP                                87                  V4 COMPANY SP                                     
D3448028800040341089412000127    0000000000001SOCIO PROPRIETARIO                                200          200 - ESTEFANIO                                   1182                SUZANA.F                                          
D3448028800040355252068000150    0000000000001SOCIO PROPRIETARIO                                700          700 - PERBONI                                     606                 EDUARDO                                           
D3448028800040302050200000184    0000000000001SOCIO PROPRIETARIO                                600          600 - LUIZ ANDRADE                                257                 ESTEVAO                                           
D3448028800040371812630000109    0000000000001SOCIO PROPRIETARIO                                500          500 - FABIO GONCALVES                             5002                ROSANGELA..ROC                                    
D3448028800040343508355000107    0000000000001SOCIO PROPRIETARIO                                350          350 - JONATHAN                                    4660                REGINA.PAULO                                      
D3448028800040326154632000101    0000000000001SOCIO PROPRIETARIO                                350          350 - JONATHAN                                    2510                TAIS.SOUZ                                         
D3448028800040338285653000137    0000000000001SOCIO PROPRIETARIO                                320          320 - FABIO                                       2348                DANIEL HAMADA                                     
D3448028800040340509836801       0000000000001SOCIO PROPRIETARIO                                500          500 - FABIO GONCALVES                             514                 MARTINS                                           
D3448028800040305919026000232    0000000000001SOCIO PROPRIETARIO                                320          320 - FABIO                                       2351                DOLORES                                           
D3448028800040314239824000123    0000000000001SOCIO PROPRIETARIO                                320          320 - FABIO                                       2372                JEFERSON                                          
D3448028800040335136607000188    0000000000001SOCIO PROPRIETARIO                                350          350 - JONATHAN                                    1183                GEIZIBEL.F                                        
D3448028800040330821131000109    0000000000001SOCIO PROPRIETARIO                                500          500 - FABIO GONCALVES                             5070                VALDIR                                            
D3448028800040305728065000171    0000000000001SOCIO PROPRIETARIO                                900          900 - WASHINGTON                                  3503                MARIA.PER                                         
D3448028800040340952313000164    0000000000001SOCIO PROPRIETARIO                                350          350 - JONATHAN                                    1183                GEIZIBEL.F                                        
D3448028800040348923548000130    0000000000001SOCIO PROPRIETARIO                                350          350 - JONATHAN                                    3544                CRISTIANO                                         
D3448028800040310967919000102    0000000000001SOCIO PROPRIETARIO                                900          900 - WASHINGTON                                  4664                ERIC                                              
D3448028800040303399159000119    0000000000001SOCIO PROPRIETARIO                                890          890 - HELDER                                      8951                VALCIONE                                          
D3448028800040307354943000161    0000000000001SOCIO PROPRIETARIO                                850          850 - ORLANDO                                     8515                REINALDO                                          
D3448028800040304235866000132    0000000000001SOCIO PROPRIETARIO                                850          850 - ORLANDO                                     8511                MARCO ANTONIO                                     
D3448028800040323384589000174    0000000000001SOCIO PROPRIETARIO                                740          740 - THIAGO AUGUSTO                              7334                TALITA.F                                          
D3448028800040313002675000111    0000000000001SOCIO PROPRIETARIO                                740          740 - THIAGO AUGUSTO                              4450                MARCELINO.PAZ                                     
D3448028800040311734092629       0000000000001SOCIO PROPRIETARIO                                890          890 - HELDER                                      8940                DENILSON                                          
D3448028800040341836063000160    0000000000001SOCIO PROPRIETARIO                                890          890 - HELDER                                      8901                MILTON                                            
D3448028800040303553855000138    0000000000001SOCIO PROPRIETARIO                                330          330 - ANDERSON                                    4410                MARDEN                                            
D3448028800040302059819000150    0000000000001SOCIO PROPRIETARIO                                740          740 - THIAGO AUGUSTO                              7449                JOSE.SOARES                                       
D3448028800040301405169000194    0000000000001SOCIO PROPRIETARIO                                740          740 - THIAGO AUGUSTO                              7329                ALESSANDRA                                        
D3448028800040321206040001993    0000000000001SOCIO PROPRIETARIO                                740          740 - THIAGO AUGUSTO                              7308                PATRICIA.SILVA                                    
D3448028800040325779489000253    0000000000001SOCIO PROPRIETARIO                                890          890 - HELDER                                      8951                VALCIONE                                          
D3448028800040326417323000179    0000000000001SOCIO PROPRIETARIO                                790          790 - MARCO AURELIO                               7939                NERI.CASTRO                                       
D3448028800040316751216000129    0000000000001SOCIO PROPRIETARIO                                740          740 - THIAGO AUGUSTO                              7329                ALESSANDRA                                        
D3448028800040321206040000911    0000000000001SOCIO PROPRIETARIO                                740          740 - THIAGO AUGUSTO                              7308                PATRICIA.SILVA                                    
D3448028800040309427274000136    0000000000001SOCIO PROPRIETARIO                                34           34 - CRISTIANO                                    3360                ARIANE CONSONI                                    
D3448028800040316383847000132    0000000000001SOCIO PROPRIETARIO                                34           34 - CRISTIANO                                    3617                WILLIAM ALVES                                     
D3448028800040396638796000181    0000000000001SOCIO PROPRIETARIO                                31           31 - VIOTTO                                       3607                VANDER MARCELO                                    
D3448028800040319196033000187    0000000000001SOCIO PROPRIETARIO                                35           35 - THIAGO                                       3685                SERGIO CUNHA                                      
D3448028800040348723665000150    0000000000001SOCIO PROPRIETARIO                                31           31 - VIOTTO                                       3650                ALINE LOPES                                       
D3448028800040345196043000122    0000000000001SOCIO PROPRIETARIO                                34           34 - CRISTIANO                                    3342                GENESI                                            
D3448028800040309580548000556    0000000000001SOCIO PROPRIETARIO                                32           32 - NICOLAU                                      3454                JOAO SOARES                                       
D3448028800040349631048000197    0000000000001SOCIO PROPRIETARIO                                34           34 - CRISTIANO                                    3584                MARIUSA                                           
D3448028800040337413354000178    0000000000001SOCIO PROPRIETARIO                                41           41 - MOISÉS                                       3675                FERNANDO SANTOS                                   
D3448028800040309580548000637    0000000000001SOCIO PROPRIETARIO                                32           32 - NICOLAU                                      3454                JOAO SOARES                                       
D3448028800040309580548001951    0000000000001SOCIO PROPRIETARIO                                32           32 - NICOLAU                                      3454                JOAO SOARES                                       
D3448028800040302628660000147    0000000000001SOCIO PROPRIETARIO                                32           32 - NICOLAU                                      3454                JOAO SOARES                                       
D3448028800040355135719000121    0000000000001SOCIO PROPRIETARIO                                34           34 - CRISTIANO                                    3342                GENESI                                            
D3448028800040359193730000360    0000000000001SOCIO PROPRIETARIO                                34           34 - CRISTIANO                                    3342                GENESI                                            
D3448028800040310585714000162    0000000000001SOCIO PROPRIETARIO                                32           32 - NICOLAU                                      3496                MARIA VANDA                                       
D3448028800040374527201000188    0000000000001SOCIO PROPRIETARIO                                34           34 - CRISTIANO                                    3398                RAQUEL CRISTINA                                   
D3448028800040307039024000101    0000000000001SOCIO PROPRIETARIO                                40           40 - BRUNO PERRONE                                3351                RAILDE MARINHO                                    
D3448028800040337031551000122    0000000000001SOCIO PROPRIETARIO                                34           34 - CRISTIANO                                    3624                MARIA SUELI                                       
D3448028800040332253912000161    0000000000001SOCIO PROPRIETARIO                                35           35 - THIAGO                                       3426                AMANDA LIMA                                       
D3448028800040346495142000178    0000000000001SOCIO PROPRIETARIO                                40           40 - BRUNO PERRONE                                3662                JULIANA GIMENEZ                                   
D3448028800040327990988000130    0000000000001SOCIO PROPRIETARIO                                31           31 - VIOTTO                                       4208                KARINA ZURDO                                      
D3448028800040302965685000217    0000000000001SOCIO PROPRIETARIO                                32           32 - NICOLAU                                      3445                AYESA BIAGIOTTI                                   
D3448028800040309018935000170    0000000000001SOCIO PROPRIETARIO                                41           41 - MOISÉS                                       3675                FERNANDO SANTOS                                   
D3448028800040306189996000101    0000000000001SOCIO PROPRIETARIO                                830          830 - JULIO CESAR                                 8351                NEYR                                              
D3448028800040326105821000186    0000000000001SOCIO PROPRIETARIO                                830          830 - JULIO CESAR                                 8317                ANDERSEN                                          
D3448028800040318510982002685    0000000000001SOCIO PROPRIETARIO                                830          830 - JULIO CESAR                                 8333                HENRIQUE                                          
D3448028800040318510982001360    0000000000001SOCIO PROPRIETARIO                                830          830 - JULIO CESAR                                 8333                HENRIQUE                                          
D3448028800040318510982002170    0000000000001SOCIO PROPRIETARIO                                830          830 - JULIO CESAR                                 8333                HENRIQUE                                          
D3448028800040318468199001467    0000000000001SOCIO PROPRIETARIO                                830          830 - JULIO CESAR                                 4494                JESSE                                             
D3448028800040347362375000165    0000000000001SOCIO PROPRIETARIO                                830          830 - JULIO CESAR                                 8334                CARLOS VENANCIO                                   
D3448028800040332885106000106    0000000000001SOCIO PROPRIETARIO                                330          330 - ANDERSON                                    4468                JOSE.RENATO                                       
D3448028800040302535720000187    0000000000001SOCIO PROPRIETARIO                                830          830 - JULIO CESAR                                 8359                CLAUDY                                            
D3448028800040311374704000140    0000000000001SOCIO PROPRIETARIO                                330          330 - ANDERSON                                    555                 FERNANDO                                          
D3448028800040353040854000168    0000000000001SOCIO PROPRIETARIO                                800          800 - SANDRO                                      8205                JOSE.PADUA                                        
D3448028800040326305953000151    0000000000001SOCIO PROPRIETARIO                                830          830 - JULIO CESAR                                 8351                NEYR                                              
D3448028800040336861285000100    0000000000001SOCIO PROPRIETARIO                                830          830 - JULIO CESAR                                 8351                NEYR                                              
D3448028800040310776499000187    0000000000001SOCIO PROPRIETARIO                                830          830 - JULIO CESAR                                 8326                MAURO.LIMA                                        
D3448028800040351032579000105    0000000000001SOCIO PROPRIETARIO                                830          830 - JULIO CESAR                                 8322                EDER.SOUZA                                        
D3448028800040303277668000179    0000000000001SOCIO PROPRIETARIO                                330          330 - ANDERSON                                    4475                PIRES                                             
D3448028800040303078133000179    0000000000001SOCIO PROPRIETARIO                                330          330 - ANDERSON                                    3302                ALTIERES.AZ                                       
D3448028800040321817739000594    0000000000001SOCIO PROPRIETARIO                                100          100 - GER.BALCAO                                  104                 LUCATELLI                                         
D3448028800040310716608000170    0000000000001SOCIO PROPRIETARIO                                800          800 - SANDRO                                      8213                DANILO.LIMA                                       
D3448028800040327613757000107    0000000000001SOCIO PROPRIETARIO                                330          330 - ANDERSON                                    3306                IRINEU                                            
D3448028800040301363411000104    0000000000001SOCIO PROPRIETARIO                                330          330 - ANDERSON                                    822                 M.GONCALVES                                       
D3448028800040301494325000130    0000000000001SOCIO PROPRIETARIO                                800          800 - SANDRO                                      3304                PAULO.VIEIRA                                      
D3448028800040316930195000109    0000000000001SOCIO PROPRIETARIO                                700          700 - PERBONI                                     605                 SINOTT                                            
D3448028800040348428299000297    0000000000001SOCIO PROPRIETARIO                                200          200 - ESTEFANIO                                   1312                EDISOM                                            
D3448028800040337412938000129    0000000000001SOCIO PROPRIETARIO                                400          400 - MARTINUCCI                                  4118                CLEITON.SANTOS                                    
D3448028800040336584880000138    0000000000001SOCIO PROPRIETARIO                                500          500 - FABIO GONCALVES                             2904                JOSE.MELO                                         
D3448028800040319961094000193    0000000000001SOCIO PROPRIETARIO                                400          400 - MARTINUCCI                                  4132                FELIPE.COSTA                                      
D3448028800040328520584000145    0000000000001SOCIO PROPRIETARIO                                400          400 - MARTINUCCI                                  4143                ISABELA.FRANCA                                    
D3448028800040374587791000134    0000000000001SOCIO PROPRIETARIO                                600          600 - LUIZ ANDRADE                                6829                RICARDO.RIB                                       
D3448028800040311830332000110    0000000000001SOCIO PROPRIETARIO                                600          600 - LUIZ ANDRADE                                6835                CLAUDIO                                           
D3448028800040302585538000130    0000000000001SOCIO PROPRIETARIO                                300          300 - FERDINANDO                                  3280                DJALMA.SIL                                        
D3448028800040356002540000169    0000000000001SOCIO PROPRIETARIO                                400          400 - MARTINUCCI                                  404                 BASSO                                             
D3448028800040311307221000123    0000000000001SOCIO PROPRIETARIO                                700          700 - PERBONI                                     711                 DAILTON                                           
D3448028800040303287835000162    0000000000001SOCIO PROPRIETARIO                                600          600 - LUIZ ANDRADE                                915                 ARAUJO                                            
D3448028800040301136451000113    0000000000001SOCIO PROPRIETARIO                                230          230 - NILTON                                      1799                ZECA                                              
D3448028800040306015753000157    0000000000001SOCIO PROPRIETARIO                                300          300 - FERDINANDO                                  3299                VALDENIR                                          
D3448028800040346061206000122    0000000000001SOCIO PROPRIETARIO                                230          230 - NILTON                                      1763                VIRGILIO                                          
D3448028800040347110471000116    0000000000001SOCIO PROPRIETARIO                                230          230 - NILTON                                      1763                VIRGILIO                                          
D3448028800040322069520002994    0000000000001SOCIO PROPRIETARIO                                700          700 - PERBONI                                     605                 SINOTT                                            
D3448028800040346031466000155    0000000000001SOCIO PROPRIETARIO                                230          230 - NILTON                                      1795                PAULA.ROBERTA.F                                   
D3448028800040351899208000125    0000000000001SOCIO PROPRIETARIO                                350          350 - JONATHAN                                    3544                CRISTIANO                                         
D3448028800040302920546880       0000000000001SOCIO PROPRIETARIO                                900          900 - WASHINGTON                                  1937                ROBSON                                            
D3448028800040333124668000108    0000000000001SOCIO PROPRIETARIO                                320          320 - FABIO                                       2372                JEFERSON                                          
D3448028800040336742956000106    0000000000001SOCIO PROPRIETARIO                                350          350 - JONATHAN                                    1183                GEIZIBEL.F                                        
D3448028800040318059076000158    0000000000001SOCIO PROPRIETARIO                                900          900 - WASHINGTON                                  4672                ANDREA                                            
D3448028800040351036538000197    0000000000001SOCIO PROPRIETARIO                                900          900 - WASHINGTON                                  4672                ANDREA                                            
D3448028800040352283093813       0000000000001SOCIO PROPRIETARIO                                900          900 - WASHINGTON                                  4682                JEFERSON                                          
D3448028800040307731950000135    0000000000001SOCIO PROPRIETARIO                                320          320 - FABIO                                       2390                NEIDE                                             
D3448028800040325196996000183    0000000000001SOCIO PROPRIETARIO                                890          890 - HELDER                                      8941                JOSE.BRITO                                        
D3448028800040311754624000110    0000000000001SOCIO PROPRIETARIO                                740          740 - THIAGO AUGUSTO                              7322                SARA                                              
D3448028800040301224068000117    0000000000001SOCIO PROPRIETARIO                                850          850 - ORLANDO                                     8511                MARCO ANTONIO                                     
D3448028800040323805419000205    0000000000001SOCIO PROPRIETARIO                                740          740 - THIAGO AUGUSTO                              2556                EMERSON                                           
D3448028800040337750298000167    0000000000001SOCIO PROPRIETARIO                                890          890 - HELDER                                      8926                CLEDSON                                           
D3448028800040357486304000128    0000000000001SOCIO PROPRIETARIO                                890          890 - HELDER                                      8926                CLEDSON                                           
D3448028800040332369685000134    0000000000001SOCIO PROPRIETARIO                                740          740 - THIAGO AUGUSTO                              4500                EDER.SANTOS                                       
D3448028800040397157252600       0000000000001SOCIO PROPRIETARIO                                330          330 - ANDERSON                                    4442                LAIZ                                              
D3448028800040323620493000168    0000000000001SOCIO PROPRIETARIO                                890          890 - HELDER                                      4460                NIVALDO.CAMILO                                    
D3448028800040355668839000194    0000000000001SOCIO PROPRIETARIO                                330          330 - ANDERSON                                    4496                JULIO CESAR                                       
D3448028800040371073100000196    0000000000001SOCIO PROPRIETARIO                                740          740 - THIAGO AUGUSTO                              7407                WEMERSON                                          
D3448028800040321397724000190    0000000000001SOCIO PROPRIETARIO                                740          740 - THIAGO AUGUSTO                              7322                SARA                                              
D3448028800040318470009000121    0000000000001SOCIO PROPRIETARIO                                850          850 - ORLANDO                                     8531                AURELIO                                           
D3448028800040309431920000139    0000000000001SOCIO PROPRIETARIO                                850          850 - ORLANDO                                     8503                IVAN                                              
D3448028800040338353209000101    0000000000001SOCIO PROPRIETARIO                                740          740 - THIAGO AUGUSTO                              7322                SARA                                              
D3448028800040301704861000113    0000000000001SOCIO PROPRIETARIO                                740          740 - THIAGO AUGUSTO                              4452                MARONI                                            
D3448028800040328520584000145    0000000000001SOCIO PROPRIETARIO                                34           34 - CRISTIANO                                    3617                WILLIAM ALVES                                     
D3448028800040343693212000104    0000000000001SOCIO PROPRIETARIO                                40           40 - BRUNO PERRONE                                3628                MARLON OLIVEIRA                                   
D3448028800040332760255000149    0000000000001SOCIO PROPRIETARIO                                34           34 - CRISTIANO                                    3583                HENRIQUE CAMPOS                                   
D3448028800040336748223000189    0000000000001SOCIO PROPRIETARIO                                32           32 - NICOLAU                                      3356                KAMILLA                                           
D3448028800040344744074000108    0000000000001SOCIO PROPRIETARIO                                32           32 - NICOLAU                                      3445                AYESA BIAGIOTTI                                   
D3448028800040324495266000382    0000000000001SOCIO PROPRIETARIO                                41           41 - MOISÉS                                       3686                CARLOS PUPO                                       
D3448028800040321067106000182    0000000000001SOCIO PROPRIETARIO                                34           34 - CRISTIANO                                    3617                WILLIAM ALVES                                     
D3448028800040304174120000166    0000000000001SOCIO PROPRIETARIO                                41           41 - MOISÉS                                       3675                FERNANDO SANTOS                                   
D3448028800040309351821000147    0000000000001SOCIO PROPRIETARIO                                40           40 - BRUNO PERRONE                                3351                RAILDE MARINHO                                    
D3448028800040324791607000103    0000000000001SOCIO PROPRIETARIO                                32           32 - NICOLAU                                      3482                LIGIA SOUZA                                       
D3448028800040354586399000163    0000000000001SOCIO PROPRIETARIO                                32           32 - NICOLAU                                      3356                KAMILLA                                           
D3448028800040317309085000197    0000000000001SOCIO PROPRIETARIO                                40           40 - BRUNO PERRONE                                3662                JULIANA GIMENEZ                                   
D3448028800040337721519000179    0000000000001SOCIO PROPRIETARIO                                35           35 - THIAGO                                       3426                AMANDA LIMA                                       
D3448028800040350087907000108    0000000000001SOCIO PROPRIETARIO                                34           34 - CRISTIANO                                    3342                GENESI                                            
D3448028800040350309673000104    0000000000001SOCIO PROPRIETARIO                                34           34 - CRISTIANO                                    3342                GENESI                                            
